{
  "contractName": "Comptroller",
  "abi": [
    {
      "inputs": [],
      "payable": false,
      "stateMutability": "nonpayable",
      "type": "constructor"
    },
    {
      "anonymous": false,
      "inputs": [
        {
          "indexed": false,
          "internalType": "string",
          "name": "action",
          "type": "string"
        },
        {
          "indexed": false,
          "internalType": "bool",
          "name": "pauseState",
          "type": "bool"
        }
      ],
      "name": "ActionPaused",
      "type": "event"
    },
    {
      "anonymous": false,
      "inputs": [
        {
          "indexed": false,
          "internalType": "uint256",
          "name": "error",
          "type": "uint256"
        },
        {
          "indexed": false,
          "internalType": "uint256",
          "name": "info",
          "type": "uint256"
        },
        {
          "indexed": false,
          "internalType": "uint256",
          "name": "detail",
          "type": "uint256"
        }
      ],
      "name": "Failure",
      "type": "event"
    },
    {
      "anonymous": false,
      "inputs": [
        {
          "indexed": false,
          "internalType": "contract CToken",
          "name": "cToken",
          "type": "address"
        },
        {
          "indexed": false,
          "internalType": "address",
          "name": "account",
          "type": "address"
        }
      ],
      "name": "MarketEntered",
      "type": "event"
    },
    {
      "anonymous": false,
      "inputs": [
        {
          "indexed": false,
          "internalType": "contract CToken",
          "name": "cToken",
          "type": "address"
        },
        {
          "indexed": false,
          "internalType": "address",
          "name": "account",
          "type": "address"
        }
      ],
      "name": "MarketExited",
      "type": "event"
    },
    {
      "anonymous": false,
      "inputs": [
        {
          "indexed": false,
          "internalType": "contract CToken",
          "name": "cToken",
          "type": "address"
        }
      ],
      "name": "MarketListed",
      "type": "event"
    },
    {
      "anonymous": false,
      "inputs": [
        {
          "indexed": false,
          "internalType": "uint256",
          "name": "oldCloseFactorMantissa",
          "type": "uint256"
        },
        {
          "indexed": false,
          "internalType": "uint256",
          "name": "newCloseFactorMantissa",
          "type": "uint256"
        }
      ],
      "name": "NewCloseFactor",
      "type": "event"
    },
    {
      "anonymous": false,
      "inputs": [
        {
          "indexed": false,
          "internalType": "contract CToken",
          "name": "cToken",
          "type": "address"
        },
        {
          "indexed": false,
          "internalType": "uint256",
          "name": "oldCollateralFactorMantissa",
          "type": "uint256"
        },
        {
          "indexed": false,
          "internalType": "uint256",
          "name": "newCollateralFactorMantissa",
          "type": "uint256"
        }
      ],
      "name": "NewCollateralFactor",
      "type": "event"
    },
    {
      "anonymous": false,
      "inputs": [
        {
          "indexed": false,
          "internalType": "uint256",
          "name": "oldLiquidationIncentiveMantissa",
          "type": "uint256"
        },
        {
          "indexed": false,
          "internalType": "uint256",
          "name": "newLiquidationIncentiveMantissa",
          "type": "uint256"
        }
      ],
      "name": "NewLiquidationIncentive",
      "type": "event"
    },
    {
      "anonymous": false,
      "inputs": [
        {
          "indexed": false,
          "internalType": "uint256",
          "name": "oldMaxAssets",
          "type": "uint256"
        },
        {
          "indexed": false,
          "internalType": "uint256",
          "name": "newMaxAssets",
          "type": "uint256"
        }
      ],
      "name": "NewMaxAssets",
      "type": "event"
    },
    {
      "anonymous": false,
      "inputs": [
        {
          "indexed": false,
          "internalType": "address",
          "name": "oldPauseGuardian",
          "type": "address"
        },
        {
          "indexed": false,
          "internalType": "address",
          "name": "newPauseGuardian",
          "type": "address"
        }
      ],
      "name": "NewPauseGuardian",
      "type": "event"
    },
    {
      "anonymous": false,
      "inputs": [
        {
          "indexed": false,
          "internalType": "contract PriceOracle",
          "name": "oldPriceOracle",
          "type": "address"
        },
        {
          "indexed": false,
          "internalType": "contract PriceOracle",
          "name": "newPriceOracle",
          "type": "address"
        }
      ],
      "name": "NewPriceOracle",
      "type": "event"
    },
    {
      "constant": true,
      "inputs": [
        {
          "internalType": "address",
          "name": "",
          "type": "address"
        },
        {
          "internalType": "uint256",
          "name": "",
          "type": "uint256"
        }
      ],
      "name": "accountAssets",
      "outputs": [
        {
          "internalType": "contract CToken",
          "name": "",
          "type": "address"
        }
      ],
      "payable": false,
      "stateMutability": "view",
      "type": "function"
    },
    {
      "constant": true,
      "inputs": [],
      "name": "admin",
      "outputs": [
        {
          "internalType": "address",
          "name": "",
          "type": "address"
        }
      ],
      "payable": false,
      "stateMutability": "view",
      "type": "function"
    },
    {
      "constant": true,
      "inputs": [],
      "name": "borrowGuardianPaused",
      "outputs": [
        {
          "internalType": "bool",
          "name": "",
          "type": "bool"
        }
      ],
      "payable": false,
      "stateMutability": "view",
      "type": "function"
    },
    {
      "constant": true,
      "inputs": [],
      "name": "closeFactorMantissa",
      "outputs": [
        {
          "internalType": "uint256",
          "name": "",
          "type": "uint256"
        }
      ],
      "payable": false,
      "stateMutability": "view",
      "type": "function"
    },
    {
      "constant": true,
      "inputs": [],
      "name": "comptrollerImplementation",
      "outputs": [
        {
          "internalType": "address",
          "name": "",
          "type": "address"
        }
      ],
      "payable": false,
      "stateMutability": "view",
      "type": "function"
    },
    {
      "constant": true,
      "inputs": [],
      "name": "isComptroller",
      "outputs": [
        {
          "internalType": "bool",
          "name": "",
          "type": "bool"
        }
      ],
      "payable": false,
      "stateMutability": "view",
      "type": "function"
    },
    {
      "constant": true,
      "inputs": [],
      "name": "liquidationIncentiveMantissa",
      "outputs": [
        {
          "internalType": "uint256",
          "name": "",
          "type": "uint256"
        }
      ],
      "payable": false,
      "stateMutability": "view",
      "type": "function"
    },
    {
      "constant": true,
      "inputs": [
        {
          "internalType": "address",
          "name": "",
          "type": "address"
        }
      ],
      "name": "markets",
      "outputs": [
        {
          "internalType": "bool",
          "name": "isListed",
          "type": "bool"
        },
        {
          "internalType": "uint256",
          "name": "collateralFactorMantissa",
          "type": "uint256"
        }
      ],
      "payable": false,
      "stateMutability": "view",
      "type": "function"
    },
    {
      "constant": true,
      "inputs": [],
      "name": "maxAssets",
      "outputs": [
        {
          "internalType": "uint256",
          "name": "",
          "type": "uint256"
        }
      ],
      "payable": false,
      "stateMutability": "view",
      "type": "function"
    },
    {
      "constant": true,
      "inputs": [],
      "name": "mintGuardianPaused",
      "outputs": [
        {
          "internalType": "bool",
          "name": "",
          "type": "bool"
        }
      ],
      "payable": false,
      "stateMutability": "view",
      "type": "function"
    },
    {
      "constant": true,
      "inputs": [],
      "name": "oracle",
      "outputs": [
        {
          "internalType": "contract PriceOracle",
          "name": "",
          "type": "address"
        }
      ],
      "payable": false,
      "stateMutability": "view",
      "type": "function"
    },
    {
      "constant": true,
      "inputs": [],
      "name": "pauseGuardian",
      "outputs": [
        {
          "internalType": "address",
          "name": "",
          "type": "address"
        }
      ],
      "payable": false,
      "stateMutability": "view",
      "type": "function"
    },
    {
      "constant": true,
      "inputs": [],
      "name": "pendingAdmin",
      "outputs": [
        {
          "internalType": "address",
          "name": "",
          "type": "address"
        }
      ],
      "payable": false,
      "stateMutability": "view",
      "type": "function"
    },
    {
      "constant": true,
      "inputs": [],
      "name": "pendingComptrollerImplementation",
      "outputs": [
        {
          "internalType": "address",
          "name": "",
          "type": "address"
        }
      ],
      "payable": false,
      "stateMutability": "view",
      "type": "function"
    },
    {
      "constant": true,
      "inputs": [],
      "name": "seizeGuardianPaused",
      "outputs": [
        {
          "internalType": "bool",
          "name": "",
          "type": "bool"
        }
      ],
      "payable": false,
      "stateMutability": "view",
      "type": "function"
    },
    {
      "constant": true,
      "inputs": [],
      "name": "transferGuardianPaused",
      "outputs": [
        {
          "internalType": "bool",
          "name": "",
          "type": "bool"
        }
      ],
      "payable": false,
      "stateMutability": "view",
      "type": "function"
    },
    {
      "constant": true,
      "inputs": [
        {
          "internalType": "address",
          "name": "account",
          "type": "address"
        }
      ],
      "name": "getAssetsIn",
      "outputs": [
        {
          "internalType": "contract CToken[]",
          "name": "",
          "type": "address[]"
        }
      ],
      "payable": false,
      "stateMutability": "view",
      "type": "function"
    },
    {
      "constant": true,
      "inputs": [
        {
          "internalType": "address",
          "name": "account",
          "type": "address"
        },
        {
          "internalType": "contract CToken",
          "name": "cToken",
          "type": "address"
        }
      ],
      "name": "checkMembership",
      "outputs": [
        {
          "internalType": "bool",
          "name": "",
          "type": "bool"
        }
      ],
      "payable": false,
      "stateMutability": "view",
      "type": "function"
    },
    {
      "constant": false,
      "inputs": [
        {
          "internalType": "address[]",
          "name": "cTokens",
          "type": "address[]"
        }
      ],
      "name": "enterMarkets",
      "outputs": [
        {
          "internalType": "uint256[]",
          "name": "",
          "type": "uint256[]"
        }
      ],
      "payable": false,
      "stateMutability": "nonpayable",
      "type": "function"
    },
    {
      "constant": false,
      "inputs": [
        {
          "internalType": "address",
          "name": "cTokenAddress",
          "type": "address"
        }
      ],
      "name": "exitMarket",
      "outputs": [
        {
          "internalType": "uint256",
          "name": "",
          "type": "uint256"
        }
      ],
      "payable": false,
      "stateMutability": "nonpayable",
      "type": "function"
    },
    {
      "constant": false,
      "inputs": [
        {
          "internalType": "address",
          "name": "cToken",
          "type": "address"
        },
        {
          "internalType": "address",
          "name": "minter",
          "type": "address"
        },
        {
          "internalType": "uint256",
          "name": "mintAmount",
          "type": "uint256"
        }
      ],
      "name": "mintAllowed",
      "outputs": [
        {
          "internalType": "uint256",
          "name": "",
          "type": "uint256"
        }
      ],
      "payable": false,
      "stateMutability": "nonpayable",
      "type": "function"
    },
    {
      "constant": false,
      "inputs": [
        {
          "internalType": "address",
          "name": "cToken",
          "type": "address"
        },
        {
          "internalType": "address",
          "name": "minter",
          "type": "address"
        },
        {
          "internalType": "uint256",
          "name": "actualMintAmount",
          "type": "uint256"
        },
        {
          "internalType": "uint256",
          "name": "mintTokens",
          "type": "uint256"
        }
      ],
      "name": "mintVerify",
      "outputs": [],
      "payable": false,
      "stateMutability": "nonpayable",
      "type": "function"
    },
    {
      "constant": false,
      "inputs": [
        {
          "internalType": "address",
          "name": "cToken",
          "type": "address"
        },
        {
          "internalType": "address",
          "name": "redeemer",
          "type": "address"
        },
        {
          "internalType": "uint256",
          "name": "redeemTokens",
          "type": "uint256"
        }
      ],
      "name": "redeemAllowed",
      "outputs": [
        {
          "internalType": "uint256",
          "name": "",
          "type": "uint256"
        }
      ],
      "payable": false,
      "stateMutability": "nonpayable",
      "type": "function"
    },
    {
      "constant": false,
      "inputs": [
        {
          "internalType": "address",
          "name": "cToken",
          "type": "address"
        },
        {
          "internalType": "address",
          "name": "redeemer",
          "type": "address"
        },
        {
          "internalType": "uint256",
          "name": "redeemAmount",
          "type": "uint256"
        },
        {
          "internalType": "uint256",
          "name": "redeemTokens",
          "type": "uint256"
        }
      ],
      "name": "redeemVerify",
      "outputs": [],
      "payable": false,
      "stateMutability": "nonpayable",
      "type": "function"
    },
    {
      "constant": false,
      "inputs": [
        {
          "internalType": "address",
          "name": "cToken",
          "type": "address"
        },
        {
          "internalType": "address",
          "name": "borrower",
          "type": "address"
        },
        {
          "internalType": "uint256",
          "name": "borrowAmount",
          "type": "uint256"
        }
      ],
      "name": "borrowAllowed",
      "outputs": [
        {
          "internalType": "uint256",
          "name": "",
          "type": "uint256"
        }
      ],
      "payable": false,
      "stateMutability": "nonpayable",
      "type": "function"
    },
    {
      "constant": false,
      "inputs": [
        {
          "internalType": "address",
          "name": "cToken",
          "type": "address"
        },
        {
          "internalType": "address",
          "name": "borrower",
          "type": "address"
        },
        {
          "internalType": "uint256",
          "name": "borrowAmount",
          "type": "uint256"
        }
      ],
      "name": "borrowVerify",
      "outputs": [],
      "payable": false,
      "stateMutability": "nonpayable",
      "type": "function"
    },
    {
      "constant": false,
      "inputs": [
        {
          "internalType": "address",
          "name": "cToken",
          "type": "address"
        },
        {
          "internalType": "address",
          "name": "payer",
          "type": "address"
        },
        {
          "internalType": "address",
          "name": "borrower",
          "type": "address"
        },
        {
          "internalType": "uint256",
          "name": "repayAmount",
          "type": "uint256"
        }
      ],
      "name": "repayBorrowAllowed",
      "outputs": [
        {
          "internalType": "uint256",
          "name": "",
          "type": "uint256"
        }
      ],
      "payable": false,
      "stateMutability": "nonpayable",
      "type": "function"
    },
    {
      "constant": false,
      "inputs": [
        {
          "internalType": "address",
          "name": "cToken",
          "type": "address"
        },
        {
          "internalType": "address",
          "name": "payer",
          "type": "address"
        },
        {
          "internalType": "address",
          "name": "borrower",
          "type": "address"
        },
        {
          "internalType": "uint256",
          "name": "actualRepayAmount",
          "type": "uint256"
        },
        {
          "internalType": "uint256",
          "name": "borrowerIndex",
          "type": "uint256"
        }
      ],
      "name": "repayBorrowVerify",
      "outputs": [],
      "payable": false,
      "stateMutability": "nonpayable",
      "type": "function"
    },
    {
      "constant": false,
      "inputs": [
        {
          "internalType": "address",
          "name": "cTokenBorrowed",
          "type": "address"
        },
        {
          "internalType": "address",
          "name": "cTokenCollateral",
          "type": "address"
        },
        {
          "internalType": "address",
          "name": "liquidator",
          "type": "address"
        },
        {
          "internalType": "address",
          "name": "borrower",
          "type": "address"
        },
        {
          "internalType": "uint256",
          "name": "repayAmount",
          "type": "uint256"
        }
      ],
      "name": "liquidateBorrowAllowed",
      "outputs": [
        {
          "internalType": "uint256",
          "name": "",
          "type": "uint256"
        }
      ],
      "payable": false,
      "stateMutability": "nonpayable",
      "type": "function"
    },
    {
      "constant": false,
      "inputs": [
        {
          "internalType": "address",
          "name": "cTokenBorrowed",
          "type": "address"
        },
        {
          "internalType": "address",
          "name": "cTokenCollateral",
          "type": "address"
        },
        {
          "internalType": "address",
          "name": "liquidator",
          "type": "address"
        },
        {
          "internalType": "address",
          "name": "borrower",
          "type": "address"
        },
        {
          "internalType": "uint256",
          "name": "actualRepayAmount",
          "type": "uint256"
        },
        {
          "internalType": "uint256",
          "name": "seizeTokens",
          "type": "uint256"
        }
      ],
      "name": "liquidateBorrowVerify",
      "outputs": [],
      "payable": false,
      "stateMutability": "nonpayable",
      "type": "function"
    },
    {
      "constant": false,
      "inputs": [
        {
          "internalType": "address",
          "name": "cTokenCollateral",
          "type": "address"
        },
        {
          "internalType": "address",
          "name": "cTokenBorrowed",
          "type": "address"
        },
        {
          "internalType": "address",
          "name": "liquidator",
          "type": "address"
        },
        {
          "internalType": "address",
          "name": "borrower",
          "type": "address"
        },
        {
          "internalType": "uint256",
          "name": "seizeTokens",
          "type": "uint256"
        }
      ],
      "name": "seizeAllowed",
      "outputs": [
        {
          "internalType": "uint256",
          "name": "",
          "type": "uint256"
        }
      ],
      "payable": false,
      "stateMutability": "nonpayable",
      "type": "function"
    },
    {
      "constant": false,
      "inputs": [
        {
          "internalType": "address",
          "name": "cTokenCollateral",
          "type": "address"
        },
        {
          "internalType": "address",
          "name": "cTokenBorrowed",
          "type": "address"
        },
        {
          "internalType": "address",
          "name": "liquidator",
          "type": "address"
        },
        {
          "internalType": "address",
          "name": "borrower",
          "type": "address"
        },
        {
          "internalType": "uint256",
          "name": "seizeTokens",
          "type": "uint256"
        }
      ],
      "name": "seizeVerify",
      "outputs": [],
      "payable": false,
      "stateMutability": "nonpayable",
      "type": "function"
    },
    {
      "constant": false,
      "inputs": [
        {
          "internalType": "address",
          "name": "cToken",
          "type": "address"
        },
        {
          "internalType": "address",
          "name": "src",
          "type": "address"
        },
        {
          "internalType": "address",
          "name": "dst",
          "type": "address"
        },
        {
          "internalType": "uint256",
          "name": "transferTokens",
          "type": "uint256"
        }
      ],
      "name": "transferAllowed",
      "outputs": [
        {
          "internalType": "uint256",
          "name": "",
          "type": "uint256"
        }
      ],
      "payable": false,
      "stateMutability": "nonpayable",
      "type": "function"
    },
    {
      "constant": false,
      "inputs": [
        {
          "internalType": "address",
          "name": "cToken",
          "type": "address"
        },
        {
          "internalType": "address",
          "name": "src",
          "type": "address"
        },
        {
          "internalType": "address",
          "name": "dst",
          "type": "address"
        },
        {
          "internalType": "uint256",
          "name": "transferTokens",
          "type": "uint256"
        }
      ],
      "name": "transferVerify",
      "outputs": [],
      "payable": false,
      "stateMutability": "nonpayable",
      "type": "function"
    },
    {
      "constant": true,
      "inputs": [
        {
          "internalType": "address",
          "name": "account",
          "type": "address"
        }
      ],
      "name": "getAccountLiquidity",
      "outputs": [
        {
          "internalType": "uint256",
          "name": "",
          "type": "uint256"
        },
        {
          "internalType": "uint256",
          "name": "",
          "type": "uint256"
        },
        {
          "internalType": "uint256",
          "name": "",
          "type": "uint256"
        }
      ],
      "payable": false,
      "stateMutability": "view",
      "type": "function"
    },
    {
      "constant": true,
      "inputs": [
        {
          "internalType": "address",
          "name": "cTokenBorrowed",
          "type": "address"
        },
        {
          "internalType": "address",
          "name": "cTokenCollateral",
          "type": "address"
        },
        {
          "internalType": "uint256",
          "name": "actualRepayAmount",
          "type": "uint256"
        }
      ],
      "name": "liquidateCalculateSeizeTokens",
      "outputs": [
        {
          "internalType": "uint256",
          "name": "",
          "type": "uint256"
        },
        {
          "internalType": "uint256",
          "name": "",
          "type": "uint256"
        }
      ],
      "payable": false,
      "stateMutability": "view",
      "type": "function"
    },
    {
      "constant": false,
      "inputs": [
        {
          "internalType": "contract PriceOracle",
          "name": "newOracle",
          "type": "address"
        }
      ],
      "name": "_setPriceOracle",
      "outputs": [
        {
          "internalType": "uint256",
          "name": "",
          "type": "uint256"
        }
      ],
      "payable": false,
      "stateMutability": "nonpayable",
      "type": "function"
    },
    {
      "constant": false,
      "inputs": [
        {
          "internalType": "uint256",
          "name": "newCloseFactorMantissa",
          "type": "uint256"
        }
      ],
      "name": "_setCloseFactor",
      "outputs": [
        {
          "internalType": "uint256",
          "name": "",
          "type": "uint256"
        }
      ],
      "payable": false,
      "stateMutability": "nonpayable",
      "type": "function"
    },
    {
      "constant": false,
      "inputs": [
        {
          "internalType": "contract CToken",
          "name": "cToken",
          "type": "address"
        },
        {
          "internalType": "uint256",
          "name": "newCollateralFactorMantissa",
          "type": "uint256"
        }
      ],
      "name": "_setCollateralFactor",
      "outputs": [
        {
          "internalType": "uint256",
          "name": "",
          "type": "uint256"
        }
      ],
      "payable": false,
      "stateMutability": "nonpayable",
      "type": "function"
    },
    {
      "constant": false,
      "inputs": [
        {
          "internalType": "uint256",
          "name": "newMaxAssets",
          "type": "uint256"
        }
      ],
      "name": "_setMaxAssets",
      "outputs": [
        {
          "internalType": "uint256",
          "name": "",
          "type": "uint256"
        }
      ],
      "payable": false,
      "stateMutability": "nonpayable",
      "type": "function"
    },
    {
      "constant": false,
      "inputs": [
        {
          "internalType": "uint256",
          "name": "newLiquidationIncentiveMantissa",
          "type": "uint256"
        }
      ],
      "name": "_setLiquidationIncentive",
      "outputs": [
        {
          "internalType": "uint256",
          "name": "",
          "type": "uint256"
        }
      ],
      "payable": false,
      "stateMutability": "nonpayable",
      "type": "function"
    },
    {
      "constant": false,
      "inputs": [
        {
          "internalType": "contract CToken",
          "name": "cToken",
          "type": "address"
        }
      ],
      "name": "_supportMarket",
      "outputs": [
        {
          "internalType": "uint256",
          "name": "",
          "type": "uint256"
        }
      ],
      "payable": false,
      "stateMutability": "nonpayable",
      "type": "function"
    },
    {
      "constant": false,
      "inputs": [
        {
          "internalType": "address",
          "name": "newPauseGuardian",
          "type": "address"
        }
      ],
      "name": "_setPauseGuardian",
      "outputs": [
        {
          "internalType": "uint256",
          "name": "",
          "type": "uint256"
        }
      ],
      "payable": false,
      "stateMutability": "nonpayable",
      "type": "function"
    },
    {
      "constant": false,
      "inputs": [
        {
          "internalType": "bool",
          "name": "state",
          "type": "bool"
        }
      ],
      "name": "_setMintPaused",
      "outputs": [
        {
          "internalType": "bool",
          "name": "",
          "type": "bool"
        }
      ],
      "payable": false,
      "stateMutability": "nonpayable",
      "type": "function"
    },
    {
      "constant": false,
      "inputs": [
        {
          "internalType": "bool",
          "name": "state",
          "type": "bool"
        }
      ],
      "name": "_setBorrowPaused",
      "outputs": [
        {
          "internalType": "bool",
          "name": "",
          "type": "bool"
        }
      ],
      "payable": false,
      "stateMutability": "nonpayable",
      "type": "function"
    },
    {
      "constant": false,
      "inputs": [
        {
          "internalType": "bool",
          "name": "state",
          "type": "bool"
        }
      ],
      "name": "_setTransferPaused",
      "outputs": [
        {
          "internalType": "bool",
          "name": "",
          "type": "bool"
        }
      ],
      "payable": false,
      "stateMutability": "nonpayable",
      "type": "function"
    },
    {
      "constant": false,
      "inputs": [
        {
          "internalType": "bool",
          "name": "state",
          "type": "bool"
        }
      ],
      "name": "_setSeizePaused",
      "outputs": [
        {
          "internalType": "bool",
          "name": "",
          "type": "bool"
        }
      ],
      "payable": false,
      "stateMutability": "nonpayable",
      "type": "function"
    },
    {
      "constant": false,
      "inputs": [
        {
          "internalType": "contract Unitroller",
          "name": "unitroller",
          "type": "address"
        }
      ],
      "name": "_become",
      "outputs": [],
      "payable": false,
      "stateMutability": "nonpayable",
      "type": "function"
    }
  ],
  "bytecode": "0x608060405234801561001057600080fd5b50600080546001600160a01b0319163317905561324c806100326000396000f3fe608060405234801561001057600080fd5b506004361061029f5760003560e01c806387f7630311610167578063c2998238116100ce578063dcfbc0c711610087578063dcfbc0c714610a20578063e4028eee14610a28578063e875544614610a54578063eabe7d9114610a5c578063ede4edd014610a92578063f851a44014610ab85761029f565b8063c299823814610869578063c488847b1461090c578063d02f73511461095b578063d9226ced146109a1578063da3d454c146109be578063dce15449146109f45761029f565b80639845f280116101205780639845f28014610762578063a76b3fda14610781578063abfceffc146107a7578063ac0b0bb71461081d578063bb82aa5e14610825578063bdcdc2581461082d5761029f565b806387f76303146106bc5780638e8f294b146106c45780638ebf636414610705578063929fe9a11461072457806394b2294b146107525780639530f6441461075a5761029f565b80634fd42e171161020b5780635ec88c79116101c45780635ec88c79146105825780635f5af1aa146105c65780635fc7e71e146105ec5780636a56947e146106325780636d35bf911461066e5780637dc0d1d0146106b45761029f565b80634fd42e17146104a657806351dff989146104c357806355ee1fe1146104ff57806356133fc8146105255780635c778605146105445780635dce05151461057a5761029f565b80632d70db781161025d5780632d70db78146103a4578063317b0b77146103c357806341c728b9146103e057806347ef3b3b1461041c5780634ada90af146104685780634ef4c3e1146104705761029f565b80627e3dd2146102a45780631d504dc6146102c05780631ededc91146102e857806324008a621461032a57806324a3d62214610378578063267822471461039c575b600080fd5b6102ac610ac0565b604080519115158252519081900360200190f35b6102e6600480360360208110156102d657600080fd5b50356001600160a01b0316610ac5565b005b6102e6600480360360a08110156102fe57600080fd5b506001600160a01b03813581169160208101358216916040820135169060608101359060800135610c2a565b6103666004803603608081101561034057600080fd5b506001600160a01b03813581169160208101358216916040820135169060600135610c31565b60408051918252519081900360200190f35b610380610c67565b604080516001600160a01b039092168252519081900360200190f35b610380610c76565b6102ac600480360360208110156103ba57600080fd5b50351515610c85565b610366600480360360208110156103d957600080fd5b5035610dad565b6102e6600480360360808110156103f657600080fd5b506001600160a01b03813581169160208101359091169060408101359060600135610ebe565b6102e6600480360360c081101561043257600080fd5b506001600160a01b0381358116916020810135821691604082013581169160608101359091169060808101359060a00135610ec4565b610366610ecc565b6103666004803603606081101561048657600080fd5b506001600160a01b03813581169160208101359091169060400135610ed2565b610366600480360360208110156104bc57600080fd5b5035610f5c565b6102e6600480360360808110156104d957600080fd5b506001600160a01b03813581169160208101359091169060408101359060600135611050565b6103666004803603602081101561051557600080fd5b50356001600160a01b03166110a4565b6102ac6004803603602081101561053b57600080fd5b5035151561112b565b6102e66004803603606081101561055a57600080fd5b506001600160a01b03813581169160208101359091169060400135611250565b6102ac611255565b6105a86004803603602081101561059857600080fd5b50356001600160a01b0316611265565b60408051938452602084019290925282820152519081900360600190f35b610366600480360360208110156105dc57600080fd5b50356001600160a01b031661129a565b610366600480360360a081101561060257600080fd5b506001600160a01b038135811691602081013582169160408201358116916060810135909116906080013561131e565b6102e66004803603608081101561064857600080fd5b506001600160a01b03813581169160208101358216916040820135169060600135610ebe565b6102e6600480360360a081101561068457600080fd5b506001600160a01b0381358116916020810135821691604082013581169160608101359091169060800135610c2a565b6103806114a5565b6102ac6114b4565b6106ea600480360360208110156106da57600080fd5b50356001600160a01b03166114c4565b60408051921515835260208301919091528051918290030190f35b6102ac6004803603602081101561071b57600080fd5b503515156114e3565b6102ac6004803603604081101561073a57600080fd5b506001600160a01b038135811691602001351661160a565b61036661163e565b6102ac611644565b6102ac6004803603602081101561077857600080fd5b50351515611654565b6103666004803603602081101561079757600080fd5b50356001600160a01b0316611777565b6107cd600480360360208110156107bd57600080fd5b50356001600160a01b03166118a6565b60408051602080825283518183015283519192839290830191858101910280838360005b838110156108095781810151838201526020016107f1565b505050509050019250505060405180910390f35b6102ac61192f565b61038061193f565b6103666004803603608081101561084357600080fd5b506001600160a01b0381358116916020810135821691604082013516906060013561194e565b6107cd6004803603602081101561087f57600080fd5b81019060208101813564010000000081111561089a57600080fd5b8201836020820111156108ac57600080fd5b803590602001918460208302840111640100000000831117156108ce57600080fd5b9190808060200260200160405190810160405280939291908181526020018383602002808284376000920191909152509295506119b0945050505050565b6109426004803603606081101561092257600080fd5b506001600160a01b03813581169160208101359091169060400135611a47565b6040805192835260208301919091528051918290030190f35b610366600480360360a081101561097157600080fd5b506001600160a01b0381358116916020810135821691604082013581169160608101359091169060800135611cbc565b610366600480360360208110156109b757600080fd5b5035611e53565b610366600480360360608110156109d457600080fd5b506001600160a01b03813581169160208101359091169060400135611ebc565b61038060048036036040811015610a0a57600080fd5b506001600160a01b0381351690602001356120fd565b610380612132565b61036660048036036040811015610a3e57600080fd5b506001600160a01b038135169060200135612141565b6103666122f1565b61036660048036036060811015610a7257600080fd5b506001600160a01b038135811691602081013590911690604001356122f7565b61036660048036036020811015610aa857600080fd5b50356001600160a01b0316612304565b610380612617565b600181565b806001600160a01b031663f851a4406040518163ffffffff1660e01b815260040160206040518083038186803b158015610afe57600080fd5b505afa158015610b12573d6000803e3d6000fd5b505050506040513d6020811015610b2857600080fd5b50516001600160a01b03163314610b705760405162461bcd60e51b81526004018080602001828103825260278152602001806131f16027913960400191505060405180910390fd5b6000816001600160a01b031663c1e803346040518163ffffffff1660e01b8152600401602060405180830381600087803b158015610bad57600080fd5b505af1158015610bc1573d6000803e3d6000fd5b505050506040513d6020811015610bd757600080fd5b505190508015610c26576040805162461bcd60e51b815260206004820152601560248201527418da185b99d9481b9bdd08185d5d1a1bdc9a5e9959605a1b604482015290519081900360640190fd5b5050565b5050505050565b6001600160a01b03841660009081526009602052604081205460ff16610c5957506009610c5f565b60005b90505b949350505050565b600a546001600160a01b031681565b6001546001600160a01b031681565b600a546000906001600160a01b0316331480610cab57506000546001600160a01b031633145b610ce65760405162461bcd60e51b81526004018080602001828103825260278152602001806131856027913960400191505060405180910390fd5b6000546001600160a01b0316331480610d0157506001821515145b610d4b576040805162461bcd60e51b81526020600482015260166024820152756f6e6c792061646d696e2063616e20756e706175736560501b604482015290519081900360640190fd5b600a8054831515600160b81b810260ff60b81b1990921691909117909155604080516020810192909252808252600582820152645365697a6560d81b6060830152516000805160206131ac8339815191529181900360800190a150805b919050565b600080546001600160a01b03163314610dd357610dcc60016004612626565b9050610da8565b610ddb6130c2565b506040805160208101909152828152610df26130c2565b50604080516020810190915266b1a2bc2ec500008152610e12828261268c565b15610e2b57610e22600580612626565b92505050610da8565b610e336130c2565b506040805160208101909152670c7d713b49da00008152610e548184612694565b15610e6e57610e64600580612626565b9350505050610da8565b6005805490869055604080518281526020810188905281517f3b9670cf975d26958e754b57098eaa2ac914d8d2a31b83257997b9f346110fd9929181900390910190a160005b9695505050505050565b50505050565b505050505050565b60065481565b600a54600090600160a01b900460ff1615610f25576040805162461bcd60e51b815260206004820152600e60248201526d1b5a5b9d081a5cc81c185d5cd95960921b604482015290519081900360640190fd5b6001600160a01b03841660009081526009602052604090205460ff16610f4f5760095b9050610f55565b60005b90505b9392505050565b600080546001600160a01b03163314610f7b57610dcc6001600b612626565b610f836130c2565b506040805160208101909152828152610f9a6130c2565b506040805160208101909152670de0b6b3a76400008152610fbb8282612694565b15610fcc57610e226007600c612626565b610fd46130c2565b5060408051602081019091526714d1120d7b1600008152610ff58184612694565b1561100657610e646007600c612626565b6006805490869055604080518281526020810188905281517faeba5a6c40a8ac138134bff1aaa65debf25971188a58804bad717f82f0ec1316929181900390910190a16000610eb4565b8015801561105e5750600082115b15610ebe576040805162461bcd60e51b815260206004820152601160248201527072656465656d546f6b656e73207a65726f60781b604482015290519081900360640190fd5b600080546001600160a01b031633146110c357610dcc60016010612626565b600480546001600160a01b038481166001600160a01b0319831681179093556040805191909216808252602082019390935281517fd52b2b9b7e9ee655fcb95d2e5b9e0c9f69e7ef2b8e9d2d0ea78402d576d22e22929181900390910190a160009392505050565b600a546000906001600160a01b031633148061115157506000546001600160a01b031633145b61118c5760405162461bcd60e51b81526004018080602001828103825260278152602001806131856027913960400191505060405180910390fd5b6000546001600160a01b03163314806111a757506001821515145b6111f1576040805162461bcd60e51b81526020600482015260166024820152756f6e6c792061646d696e2063616e20756e706175736560501b604482015290519081900360640190fd5b600a8054831515600160a81b810260ff60a81b199092169190911790915560408051602081019290925280825260068282015265426f72726f7760d01b6060830152516000805160206131ac8339815191529181900360800190a15090565b505050565b600a54600160a01b900460ff1681565b60008060008060008061127c87600080600061269b565b92509250925082601181111561128e57fe5b97919650945092505050565b600080546001600160a01b031633146112b957610dcc60016013612626565b600a80546001600160a01b038481166001600160a01b0319831617928390556040805192821680845293909116602083015280517f0613b6ee6a04f0d09f390e4d9318894b9f6ac7fd83897cd8d18896ba579c401e9281900390910190a16000610f55565b6001600160a01b03851660009081526009602052604081205460ff16158061135f57506001600160a01b03851660009081526009602052604090205460ff16155b1561136e5760095b905061149c565b60008061137a85612ac0565b9193509091506000905082601181111561139057fe5b146113aa578160118111156113a157fe5b9250505061149c565b806113b65760036113a1565b6000886001600160a01b03166395dd9193876040518263ffffffff1660e01b815260040180826001600160a01b03166001600160a01b0316815260200191505060206040518083038186803b15801561140e57600080fd5b505afa158015611422573d6000803e3d6000fd5b505050506040513d602081101561143857600080fd5b505160408051602081019091526005548152909150600090819061145c9084612ae0565b9092509050600082600381111561146f57fe5b1461148357600b5b9550505050505061149c565b80871115611492576011611477565b6000955050505050505b95945050505050565b6004546001600160a01b031681565b600a54600160b01b900460ff1681565b6009602052600090815260409020805460019091015460ff9091169082565b600a546000906001600160a01b031633148061150957506000546001600160a01b031633145b6115445760405162461bcd60e51b81526004018080602001828103825260278152602001806131856027913960400191505060405180910390fd5b6000546001600160a01b031633148061155f57506001821515145b6115a9576040805162461bcd60e51b81526020600482015260166024820152756f6e6c792061646d696e2063616e20756e706175736560501b604482015290519081900360640190fd5b600a8054831515600160b01b810260ff60b01b1990921691909117909155604080516020810192909252808252600882820152672a3930b739b332b960c11b6060830152516000805160206131ac8339815191529181900360800190a15090565b6001600160a01b038082166000908152600960209081526040808320938616835260029093019052205460ff165b92915050565b60075481565b600a54600160a81b900460ff1681565b600a546000906001600160a01b031633148061167a57506000546001600160a01b031633145b6116b55760405162461bcd60e51b81526004018080602001828103825260278152602001806131856027913960400191505060405180910390fd5b6000546001600160a01b03163314806116d057506001821515145b61171a576040805162461bcd60e51b81526020600482015260166024820152756f6e6c792061646d696e2063616e20756e706175736560501b604482015290519081900360640190fd5b600a8054831515600160a01b810260ff60a01b199092169190911790915560408051602081019290925280825260048282015263135a5b9d60e21b6060830152516000805160206131ac8339815191529181900360800190a15090565b600080546001600160a01b0316331461179657610dcc60016012612626565b6001600160a01b03821660009081526009602052604090205460ff16156117c357610dcc600a6011612626565b816001600160a01b031663fe9c44ae6040518163ffffffff1660e01b815260040160206040518083038186803b1580156117fc57600080fd5b505afa158015611810573d6000803e3d6000fd5b505050506040513d602081101561182657600080fd5b50506040805180820182526001808252600060208084018281526001600160a01b03881680845260098352928690209451855460ff1916901515178555519390920192909255825191825291517fcf583bb0c569eb967f806b11601c4cb93c10310485c67add5f8362c2f212321f929181900390910190a1600092915050565b60608060086000846001600160a01b03166001600160a01b0316815260200190815260200160002080548060200260200160405190810160405280929190818152602001828054801561192257602002820191906000526020600020905b81546001600160a01b03168152600190910190602001808311611904575b5093979650505050505050565b600a54600160b81b900460ff1681565b6002546001600160a01b031681565b600a54600090600160b01b900460ff16156119a5576040805162461bcd60e51b81526020600482015260126024820152711d1c985b9cd9995c881a5cc81c185d5cd95960721b604482015290519081900360640190fd5b610c5c858584612b34565b60606000825190506060816040519080825280602002602001820160405280156119e4578160200160208202803883390190505b50905060005b82811015611a3f576000858281518110611a0057fe5b60200260200101519050611a148133612ba3565b6011811115611a1f57fe5b838381518110611a2b57fe5b6020908102919091010152506001016119ea565b509392505050565b600480546040805163fc57d4df60e01b81526001600160a01b038781169482019490945290516000938493849391169163fc57d4df91602480820192602092909190829003018186803b158015611a9d57600080fd5b505afa158015611ab1573d6000803e3d6000fd5b505050506040513d6020811015611ac757600080fd5b5051600480546040805163fc57d4df60e01b81526001600160a01b038a8116948201949094529051939450600093929091169163fc57d4df91602480820192602092909190829003018186803b158015611b2057600080fd5b505afa158015611b34573d6000803e3d6000fd5b505050506040513d6020811015611b4a57600080fd5b50519050811580611b59575080155b15611b6e57600d935060009250611cb4915050565b6000866001600160a01b031663182df0f56040518163ffffffff1660e01b815260040160206040518083038186803b158015611ba957600080fd5b505afa158015611bbd573d6000803e3d6000fd5b505050506040513d6020811015611bd357600080fd5b505190506000611be16130c2565b611be96130c2565b611bf16130c2565b6000611bff60065489612cc4565b945090506000816003811115611c1157fe5b14611c2d57600b5b995060009850611cb4975050505050505050565b611c378787612cc4565b935090506000816003811115611c4957fe5b14611c5557600b611c19565b611c5f8484612cff565b925090506000816003811115611c7157fe5b14611c7d57600b611c19565b611c87828c612ae0565b955090506000816003811115611c9957fe5b14611ca557600b611c19565b60009950939750505050505050505b935093915050565b600a54600090600160b81b900460ff1615611d10576040805162461bcd60e51b815260206004820152600f60248201526e1cd95a5e99481a5cc81c185d5cd959608a1b604482015290519081900360640190fd5b6001600160a01b03861660009081526009602052604090205460ff161580611d5157506001600160a01b03851660009081526009602052604090205460ff16155b15611d5d576009611367565b846001600160a01b0316635fe3b5676040518163ffffffff1660e01b815260040160206040518083038186803b158015611d9657600080fd5b505afa158015611daa573d6000803e3d6000fd5b505050506040513d6020811015611dc057600080fd5b505160408051635fe3b56760e01b815290516001600160a01b0392831692891691635fe3b567916004808301926020929190829003018186803b158015611e0657600080fd5b505afa158015611e1a573d6000803e3d6000fd5b505050506040513d6020811015611e3057600080fd5b50516001600160a01b031614611e47576002611367565b60009695505050505050565b600080546001600160a01b03163314611e7257610dcc6001600d612626565b6007805490839055604080518281526020810185905281517f7093cf1eb653f749c3ff531d6df7f92764536a7fa0d13530cd26e070780c32ea929181900390910190a16000610f55565b600a54600090600160a81b900460ff1615611f11576040805162461bcd60e51b815260206004820152601060248201526f189bdc9c9bddc81a5cc81c185d5cd95960821b604482015290519081900360640190fd5b6001600160a01b03841660009081526009602052604090205460ff16611f38576009610f48565b6001600160a01b038085166000908152600960209081526040808320938716835260029093019052205460ff1661202857336001600160a01b03851614611fbe576040805162461bcd60e51b815260206004820152601560248201527439b2b73232b91036bab9ba1031329031aa37b5b2b760591b604482015290519081900360640190fd5b6000611fca3385612ba3565b90506000816011811115611fda57fe5b14611ff357806011811115611feb57fe5b915050610f55565b6001600160a01b038086166000908152600960209081526040808320938816835260029093019052205460ff1661202657fe5b505b600480546040805163fc57d4df60e01b81526001600160a01b03888116948201949094529051929091169163fc57d4df91602480820192602092909190829003018186803b15801561207957600080fd5b505afa15801561208d573d6000803e3d6000fd5b505050506040513d60208110156120a357600080fd5b50516120b057600d610f48565b6000806120c0858760008761269b565b919350909150600090508260118111156120d657fe5b146120f0578160118111156120e757fe5b92505050610f55565b8015611e475760046120e7565b6008602052816000526040600020818154811061211657fe5b6000918252602090912001546001600160a01b03169150829050565b6003546001600160a01b031681565b600080546001600160a01b031633146121675761216060016006612626565b9050611638565b6001600160a01b0383166000908152600960205260409020805460ff1661219c5761219460096007612626565b915050611638565b6121a46130c2565b5060408051602081019091528381526121bb6130c2565b506040805160208101909152670c7d713b49da000081526121dc8183612694565b156121f7576121ed60066008612626565b9350505050611638565b84158015906122805750600480546040805163fc57d4df60e01b81526001600160a01b038a8116948201949094529051929091169163fc57d4df91602480820192602092909190829003018186803b15801561225257600080fd5b505afa158015612266573d6000803e3d6000fd5b505050506040513d602081101561227c57600080fd5b5051155b15612291576121ed600d6009612626565b60018301805490869055604080516001600160a01b03891681526020810183905280820188905290517f70483e6592cd5182d45ac970e05bc62cdcc90e9d8ef2c2dbe686cf383bcd7fc59181900360600190a16000979650505050505050565b60055481565b6000610f52848484612b34565b6000808290506000806000836001600160a01b031663c37f68e2336040518263ffffffff1660e01b815260040180826001600160a01b03166001600160a01b0316815260200191505060806040518083038186803b15801561236557600080fd5b505afa158015612379573d6000803e3d6000fd5b505050506040513d608081101561238f57600080fd5b5080516020820151604090920151909450909250905082156123e25760405162461bcd60e51b81526004018080602001828103825260258152602001806131cc6025913960400191505060405180910390fd5b80156123ff576123f4600c6002612626565b945050505050610da8565b600061240c873385612b34565b9050801561242d57612421600e600383612d17565b95505050505050610da8565b6001600160a01b0385166000908152600960209081526040808320338452600281019092529091205460ff1661246c5760009650505050505050610da8565b3360009081526002820160209081526040808320805460ff1916905560088252918290208054835181840281018401909452808452606093928301828280156124de57602002820191906000526020600020905b81546001600160a01b031681526001909101906020018083116124c0575b5050835193945083925060009150505b8281101561253357896001600160a01b031684828151811061250c57fe5b60200260200101516001600160a01b0316141561252b57809150612533565b6001016124ee565b5081811061253d57fe5b33600090815260086020526040902080548190600019810190811061255e57fe5b9060005260206000200160009054906101000a90046001600160a01b031681838154811061258857fe5b600091825260209091200180546001600160a01b0319166001600160a01b039290921691909117905580546125c18260001983016130d5565b50604080516001600160a01b038c16815233602082015281517fe699a64c18b07ac5b7301aa273f36a2287239eb9501d81950672794afba29a0d929181900390910190a160009c9b505050505050505050505050565b6000546001600160a01b031681565b60007f45b96fe442630264581b197e84bbada861235052c5a1aadfff9ea4e40a969aa083601181111561265557fe5b83601381111561266157fe5b604080519283526020830191909152600082820152519081900360600190a1826011811115610f5557fe5b519051111590565b5190511090565b60008060006126a86130f9565b6001600160a01b03881660009081526008602090815260408083208054825181850281018501909352808352849360609392919083018282801561271557602002820191906000526020600020905b81546001600160a01b031681526001909101906020018083116126f7575b50939450600093505050505b8151811015612a7157600082828151811061273857fe5b60200260200101519050806001600160a01b031663c37f68e28e6040518263ffffffff1660e01b815260040180826001600160a01b03166001600160a01b0316815260200191505060806040518083038186803b15801561279857600080fd5b505afa1580156127ac573d6000803e3d6000fd5b505050506040513d60808110156127c257600080fd5b508051602082015160408084015160609485015160808c0152938a019390935291880191909152945084156128085750600f975060009650869550612ab6945050505050565b60408051602080820183526001600160a01b0380851660008181526009845285902060010154845260c08b01939093528351808301855260808b0151815260e08b015260048054855163fc57d4df60e01b815291820194909452935192169263fc57d4df9260248083019392829003018186803b15801561288857600080fd5b505afa15801561289c573d6000803e3d6000fd5b505050506040513d60208110156128b257600080fd5b505160a087018190526128d65750600d975060009650869550612ab6945050505050565b604080516020810190915260a08701518152610100870181905260c087015160e088015161290392612d7d565b6101208801529350600084600381111561291957fe5b146129355750600b975060009650869550612ab6945050505050565b61294d86610120015187604001518860000151612dd5565b87529350600084600381111561295f57fe5b1461297b5750600b975060009650869550612ab6945050505050565b61299386610100015187606001518860200151612dd5565b6020880152935060008460038111156129a857fe5b146129c45750600b975060009650869550612ab6945050505050565b8b6001600160a01b0316816001600160a01b03161415612a68576129f28661012001518c8860200151612dd5565b602088015293506000846003811115612a0757fe5b14612a235750600b975060009650869550612ab6945050505050565b612a378661010001518b8860200151612dd5565b602088015293506000846003811115612a4c57fe5b14612a685750600b975060009650869550612ab6945050505050565b50600101612721565b50602084015184511115612a98575050506020810151905160009450039150829050612ab6565b5050815160209092015160009550859450919091039150612ab69050565b9450945094915050565b6000806000612ad384600080600061269b565b9250925092509193909250565b6000806000612aed6130c2565b612af78686612e22565b90925090506000826003811115612b0a57fe5b14612b1b5750915060009050612b2d565b6000612b2682612e8a565b9350935050505b9250929050565b6001600160a01b03831660009081526009602052604081205460ff16612b5b576009610f48565b6001600160a01b038085166000908152600960209081526040808320938716835260029093019052205460ff16612b93576000610f48565b6000806120c0858786600061269b565b6001600160a01b0382166000908152600960205260408120805460ff16612bce576009915050611638565b6001600160a01b038316600090815260028201602052604090205460ff16151560011415612c00576000915050611638565b6007546001600160a01b03841660009081526008602052604090205410612c2b576010915050611638565b6001600160a01b0380841660008181526002840160209081526040808320805460ff19166001908117909155600883528184208054918201815584529282902090920180549489166001600160a01b031990951685179055815193845283019190915280517f3ab23ab0d51cccc0c3085aec51f99228625aa1a922b3a8ca89a26b0f2027a1a59281900390910190a15060009392505050565b6000612cce6130c2565b612cf4604051806020016040528086815250604051806020016040528086815250612e99565b915091509250929050565b6000612d096130c2565b83518351612cf49190612f82565b60007f45b96fe442630264581b197e84bbada861235052c5a1aadfff9ea4e40a969aa0846011811115612d4657fe5b846013811115612d5257fe5b604080519283526020830191909152818101859052519081900360600190a1836011811115610f5257fe5b6000612d876130c2565b6000612d916130c2565b612d9b8787612e99565b90925090506000826003811115612dae57fe5b14612dbd579092509050611cb4565b612dc78186612e99565b935093505050935093915050565b6000806000612de26130c2565b612dec8787612e22565b90925090506000826003811115612dff57fe5b14612e105750915060009050611cb4565b612dc7612e1c82612e8a565b86613032565b6000612e2c6130c2565b600080612e3d866000015186613058565b90925090506000826003811115612e5057fe5b14612e6f57506040805160208101909152600081529092509050612b2d565b60408051602081019091529081526000969095509350505050565b51670de0b6b3a7640000900490565b6000612ea36130c2565b600080612eb886600001518660000151613058565b90925090506000826003811115612ecb57fe5b14612eea57506040805160208101909152600081529092509050612b2d565b600080612eff6706f05b59d3b2000084613032565b90925090506000826003811115612f1257fe5b14612f3457506040805160208101909152600081529094509250612b2d915050565b600080612f4983670de0b6b3a7640000613097565b90925090506000826003811115612f5c57fe5b14612f6357fe5b604080516020810190915290815260009a909950975050505050505050565b6000612f8c6130c2565b600080612fa186670de0b6b3a7640000613058565b90925090506000826003811115612fb457fe5b14612fd357506040805160208101909152600081529092509050612b2d565b600080612fe08388613097565b90925090506000826003811115612ff357fe5b1461301557506040805160208101909152600081529094509250612b2d915050565b604080516020810190915290815260009890975095505050505050565b60008083830184811061304a57600092509050612b2d565b506002915060009050612b2d565b6000808361306b57506000905080612b2d565b8383028385828161307857fe5b041461308c57506002915060009050612b2d565b600092509050612b2d565b600080826130ab5750600190506000612b2d565b60008385816130b657fe5b04915091509250929050565b6040518060200160405280600081525090565b81548183558181111561125057600083815260209020611250918101908301613163565b6040518061014001604052806000815260200160008152602001600081526020016000815260200160008152602001600081526020016131376130c2565b81526020016131446130c2565b81526020016131516130c2565b815260200161315e6130c2565b905290565b61318191905b8082111561317d5760008155600101613169565b5090565b9056fe6f6e6c7920706175736520677561726469616e20616e642061646d696e2063616e207061757365ef159d9a32b2472e32b098f954f3ce62d232939f1c207070b584df1814de2de0657869744d61726b65743a206765744163636f756e74536e617073686f74206661696c65646f6e6c7920756e6974726f6c6c65722061646d696e2063616e206368616e676520627261696e73a265627a7a72315820bf5bb38c56540ca307426fe179d7dff0056769ac7a75b22c9033b8dd570946a064736f6c634300050c0032",
  "source": "pragma solidity ^0.5.12;\n\nimport \"./CToken.sol\";\nimport \"./ErrorReporter.sol\";\nimport \"./Exponential.sol\";\nimport \"./PriceOracle.sol\";\nimport \"./ComptrollerInterface.sol\";\nimport \"./ComptrollerStorage.sol\";\nimport \"./Unitroller.sol\";\n\n/**\n * @title Compound's Comptroller Contract\n * @author Compound\n */\ncontract Comptroller is ComptrollerV2Storage, ComptrollerInterface, ComptrollerErrorReporter, Exponential {\n    /**\n     * @notice Emitted when an admin supports a market\n     */\n    event MarketListed(CToken cToken);\n\n    /**\n     * @notice Emitted when an account enters a market\n     */\n    event MarketEntered(CToken cToken, address account);\n\n    /**\n     * @notice Emitted when an account exits a market\n     */\n    event MarketExited(CToken cToken, address account);\n\n    /**\n     * @notice Emitted when close factor is changed by admin\n     */\n    event NewCloseFactor(uint oldCloseFactorMantissa, uint newCloseFactorMantissa);\n\n    /**\n     * @notice Emitted when a collateral factor is changed by admin\n     */\n    event NewCollateralFactor(CToken cToken, uint oldCollateralFactorMantissa, uint newCollateralFactorMantissa);\n\n    /**\n     * @notice Emitted when liquidation incentive is changed by admin\n     */\n    event NewLiquidationIncentive(uint oldLiquidationIncentiveMantissa, uint newLiquidationIncentiveMantissa);\n\n    /**\n     * @notice Emitted when maxAssets is changed by admin\n     */\n    event NewMaxAssets(uint oldMaxAssets, uint newMaxAssets);\n\n    /**\n     * @notice Emitted when price oracle is changed\n     */\n    event NewPriceOracle(PriceOracle oldPriceOracle, PriceOracle newPriceOracle);\n\n    /**\n     * @notice Emitted when pause guardian is changed\n     */\n    event NewPauseGuardian(address oldPauseGuardian, address newPauseGuardian);\n\n    /**\n     * @notice Emitted when an action is paused\n     */\n    event ActionPaused(string action, bool pauseState);\n\n    /**\n     * @notice Indicator that this is a Comptroller contract (for inspection)\n     */\n    bool public constant isComptroller = true;\n\n    // closeFactorMantissa must be strictly greater than this value\n    uint internal constant closeFactorMinMantissa = 0.05e18; // 0.05\n\n    // closeFactorMantissa must not exceed this value\n    uint internal constant closeFactorMaxMantissa = 0.9e18; // 0.9\n\n    // No collateralFactorMantissa may exceed this value\n    uint internal constant collateralFactorMaxMantissa = 0.9e18; // 0.9\n\n    // liquidationIncentiveMantissa must be no less than this value\n    uint internal constant liquidationIncentiveMinMantissa = 1.0e18; // 1.0\n\n    // liquidationIncentiveMantissa must be no greater than this value\n    uint internal constant liquidationIncentiveMaxMantissa = 1.5e18; // 1.5\n\n    constructor() public {\n        admin = msg.sender;\n    }\n\n    /*** Assets You Are In ***/\n\n    /**\n     * @notice Returns the assets an account has entered\n     * @param account The address of the account to pull assets for\n     * @return A dynamic list with the assets the account has entered\n     */\n    function getAssetsIn(address account) external view returns (CToken[] memory) {\n        CToken[] memory assetsIn = accountAssets[account];\n\n        return assetsIn;\n    }\n\n    /**\n     * @notice Returns whether the given account is entered in the given asset\n     * @param account The address of the account to check\n     * @param cToken The cToken to check\n     * @return True if the account is in the asset, otherwise false.\n     */\n    function checkMembership(address account, CToken cToken) external view returns (bool) {\n        return markets[address(cToken)].accountMembership[account];\n    }\n\n    /**\n     * @notice Add assets to be included in account liquidity calculation\n     * @param cTokens The list of addresses of the cToken markets to be enabled\n     * @return Success indicator for whether each corresponding market was entered\n     */\n    function enterMarkets(address[] memory cTokens) public returns (uint[] memory) {\n        uint len = cTokens.length;\n\n        uint[] memory results = new uint[](len);\n        for (uint i = 0; i < len; i++) {\n            CToken cToken = CToken(cTokens[i]);\n\n            results[i] = uint(addToMarketInternal(cToken, msg.sender));\n        }\n\n        return results;\n    }\n\n    /**\n     * @notice Add the market to the borrower's \"assets in\" for liquidity calculations\n     * @param cToken The market to enter\n     * @param borrower The address of the account to modify\n     * @return Success indicator for whether the market was entered\n     */\n    function addToMarketInternal(CToken cToken, address borrower) internal returns (Error) {\n        Market storage marketToJoin = markets[address(cToken)];\n\n        if (!marketToJoin.isListed) {\n            // market is not listed, cannot join\n            return Error.MARKET_NOT_LISTED;\n        }\n\n        if (marketToJoin.accountMembership[borrower] == true) {\n            // already joined\n            return Error.NO_ERROR;\n        }\n\n        if (accountAssets[borrower].length >= maxAssets)  {\n            // no space, cannot join\n            return Error.TOO_MANY_ASSETS;\n        }\n\n        // survived the gauntlet, add to list\n        // NOTE: we store these somewhat redundantly as a significant optimization\n        //  this avoids having to iterate through the list for the most common use cases\n        //  that is, only when we need to perform liquidity checks\n        //  and not whenever we want to check if an account is in a particular market\n        marketToJoin.accountMembership[borrower] = true;\n        accountAssets[borrower].push(cToken);\n\n        emit MarketEntered(cToken, borrower);\n\n        return Error.NO_ERROR;\n    }\n\n    /**\n     * @notice Removes asset from sender's account liquidity calculation\n     * @dev Sender must not have an outstanding borrow balance in the asset,\n     *  or be providing neccessary collateral for an outstanding borrow.\n     * @param cTokenAddress The address of the asset to be removed\n     * @return Whether or not the account successfully exited the market\n     */\n    function exitMarket(address cTokenAddress) external returns (uint) {\n        CToken cToken = CToken(cTokenAddress);\n        /* Get sender tokensHeld and amountOwed underlying from the cToken */\n        (uint oErr, uint tokensHeld, uint amountOwed, ) = cToken.getAccountSnapshot(msg.sender);\n        require(oErr == 0, \"exitMarket: getAccountSnapshot failed\"); // semi-opaque error code\n\n        /* Fail if the sender has a borrow balance */\n        if (amountOwed != 0) {\n            return fail(Error.NONZERO_BORROW_BALANCE, FailureInfo.EXIT_MARKET_BALANCE_OWED);\n        }\n\n        /* Fail if the sender is not permitted to redeem all of their tokens */\n        uint allowed = redeemAllowedInternal(cTokenAddress, msg.sender, tokensHeld);\n        if (allowed != 0) {\n            return failOpaque(Error.REJECTION, FailureInfo.EXIT_MARKET_REJECTION, allowed);\n        }\n\n        Market storage marketToExit = markets[address(cToken)];\n\n        /* Return true if the sender is not already in the market */\n        if (!marketToExit.accountMembership[msg.sender]) {\n            return uint(Error.NO_ERROR);\n        }\n\n        /* Set cToken account membership to false */\n        delete marketToExit.accountMembership[msg.sender];\n\n        /* Delete cToken from the accounts list of assets */\n        // load into memory for faster iteration\n        CToken[] memory userAssetList = accountAssets[msg.sender];\n        uint len = userAssetList.length;\n        uint assetIndex = len;\n        for (uint i = 0; i < len; i++) {\n            if (userAssetList[i] == cToken) {\n                assetIndex = i;\n                break;\n            }\n        }\n\n        // We *must* have found the asset in the list or our redundant data structure is broken\n        assert(assetIndex < len);\n\n        // copy last item in list to location of item to be removed, reduce length by 1\n        CToken[] storage storedList = accountAssets[msg.sender];\n        storedList[assetIndex] = storedList[storedList.length - 1];\n        storedList.length--;\n\n        emit MarketExited(cToken, msg.sender);\n\n        return uint(Error.NO_ERROR);\n    }\n\n    /*** Policy Hooks ***/\n\n    /**\n     * @notice Checks if the account should be allowed to mint tokens in the given market\n     * @param cToken The market to verify the mint against\n     * @param minter The account which would get the minted tokens\n     * @param mintAmount The amount of underlying being supplied to the market in exchange for tokens\n     * @return 0 if the mint is allowed, otherwise a semi-opaque error code (See ErrorReporter.sol)\n     */\n    function mintAllowed(address cToken, address minter, uint mintAmount) external returns (uint) {\n        // Pausing is a very serious situation - we revert to sound the alarms\n        require(!mintGuardianPaused, \"mint is paused\");\n\n        // Shh - currently unused\n        minter;\n        mintAmount;\n\n        if (!markets[cToken].isListed) {\n            return uint(Error.MARKET_NOT_LISTED);\n        }\n\n        // *may include Policy Hook-type checks\n\n        return uint(Error.NO_ERROR);\n    }\n\n    /**\n     * @notice Validates mint and reverts on rejection. May emit logs.\n     * @param cToken Asset being minted\n     * @param minter The address minting the tokens\n     * @param actualMintAmount The amount of the underlying asset being minted\n     * @param mintTokens The number of tokens being minted\n     */\n    function mintVerify(address cToken, address minter, uint actualMintAmount, uint mintTokens) external {\n        // Shh - currently unused\n        cToken;\n        minter;\n        actualMintAmount;\n        mintTokens;\n\n        // Shh - we don't ever want this hook to be marked pure\n        if (false) {\n            maxAssets = maxAssets;\n        }\n    }\n\n    /**\n     * @notice Checks if the account should be allowed to redeem tokens in the given market\n     * @param cToken The market to verify the redeem against\n     * @param redeemer The account which would redeem the tokens\n     * @param redeemTokens The number of cTokens to exchange for the underlying asset in the market\n     * @return 0 if the redeem is allowed, otherwise a semi-opaque error code (See ErrorReporter.sol)\n     */\n    function redeemAllowed(address cToken, address redeemer, uint redeemTokens) external returns (uint) {\n        return redeemAllowedInternal(cToken, redeemer, redeemTokens);\n    }\n\n    function redeemAllowedInternal(address cToken, address redeemer, uint redeemTokens) internal view returns (uint) {\n        if (!markets[cToken].isListed) {\n            return uint(Error.MARKET_NOT_LISTED);\n        }\n\n        // *may include Policy Hook-type checks\n\n        /* If the redeemer is not 'in' the market, then we can bypass the liquidity check */\n        if (!markets[cToken].accountMembership[redeemer]) {\n            return uint(Error.NO_ERROR);\n        }\n\n        /* Otherwise, perform a hypothetical liquidity check to guard against shortfall */\n        (Error err, , uint shortfall) = getHypotheticalAccountLiquidityInternal(redeemer, CToken(cToken), redeemTokens, 0);\n        if (err != Error.NO_ERROR) {\n            return uint(err);\n        }\n        if (shortfall > 0) {\n            return uint(Error.INSUFFICIENT_LIQUIDITY);\n        }\n\n        return uint(Error.NO_ERROR);\n    }\n\n    /**\n     * @notice Validates redeem and reverts on rejection. May emit logs.\n     * @param cToken Asset being redeemed\n     * @param redeemer The address redeeming the tokens\n     * @param redeemAmount The amount of the underlying asset being redeemed\n     * @param redeemTokens The number of tokens being redeemed\n     */\n    function redeemVerify(address cToken, address redeemer, uint redeemAmount, uint redeemTokens) external {\n        // Shh - currently unused\n        cToken;\n        redeemer;\n\n        // Require tokens is zero or amount is also zero\n        if (redeemTokens == 0 && redeemAmount > 0) {\n            revert(\"redeemTokens zero\");\n        }\n    }\n\n    /**\n     * @notice Checks if the account should be allowed to borrow the underlying asset of the given market\n     * @param cToken The market to verify the borrow against\n     * @param borrower The account which would borrow the asset\n     * @param borrowAmount The amount of underlying the account would borrow\n     * @return 0 if the borrow is allowed, otherwise a semi-opaque error code (See ErrorReporter.sol)\n     */\n    function borrowAllowed(address cToken, address borrower, uint borrowAmount) external returns (uint) {\n        // Pausing is a very serious situation - we revert to sound the alarms\n        require(!borrowGuardianPaused, \"borrow is paused\");\n\n        if (!markets[cToken].isListed) {\n            return uint(Error.MARKET_NOT_LISTED);\n        }\n\n        // *may include Policy Hook-type checks\n\n        if (!markets[cToken].accountMembership[borrower]) {\n            // only cTokens may call borrowAllowed if borrower not in market\n            require(msg.sender == cToken, \"sender must be cToken\");\n\n            // attempt to add borrower to the market\n            Error err = addToMarketInternal(CToken(msg.sender), borrower);\n            if (err != Error.NO_ERROR) {\n                return uint(err);\n            }\n\n            // it should be impossible to break the important invariant\n            assert(markets[cToken].accountMembership[borrower]);\n        }\n\n        if (oracle.getUnderlyingPrice(CToken(cToken)) == 0) {\n            return uint(Error.PRICE_ERROR);\n        }\n\n        (Error err, , uint shortfall) = getHypotheticalAccountLiquidityInternal(borrower, CToken(cToken), 0, borrowAmount);\n        if (err != Error.NO_ERROR) {\n            return uint(err);\n        }\n        if (shortfall > 0) {\n            return uint(Error.INSUFFICIENT_LIQUIDITY);\n        }\n\n        return uint(Error.NO_ERROR);\n    }\n\n    /**\n     * @notice Validates borrow and reverts on rejection. May emit logs.\n     * @param cToken Asset whose underlying is being borrowed\n     * @param borrower The address borrowing the underlying\n     * @param borrowAmount The amount of the underlying asset requested to borrow\n     */\n    function borrowVerify(address cToken, address borrower, uint borrowAmount) external {\n        // Shh - currently unused\n        cToken;\n        borrower;\n        borrowAmount;\n\n        // Shh - we don't ever want this hook to be marked pure\n        if (false) {\n            maxAssets = maxAssets;\n        }\n    }\n\n    /**\n     * @notice Checks if the account should be allowed to repay a borrow in the given market\n     * @param cToken The market to verify the repay against\n     * @param payer The account which would repay the asset\n     * @param borrower The account which would borrowed the asset\n     * @param repayAmount The amount of the underlying asset the account would repay\n     * @return 0 if the repay is allowed, otherwise a semi-opaque error code (See ErrorReporter.sol)\n     */\n    function repayBorrowAllowed(\n        address cToken,\n        address payer,\n        address borrower,\n        uint repayAmount) external returns (uint) {\n        // Shh - currently unused\n        payer;\n        borrower;\n        repayAmount;\n\n        if (!markets[cToken].isListed) {\n            return uint(Error.MARKET_NOT_LISTED);\n        }\n\n        // *may include Policy Hook-type checks\n\n        return uint(Error.NO_ERROR);\n    }\n\n    /**\n     * @notice Validates repayBorrow and reverts on rejection. May emit logs.\n     * @param cToken Asset being repaid\n     * @param payer The address repaying the borrow\n     * @param borrower The address of the borrower\n     * @param actualRepayAmount The amount of underlying being repaid\n     */\n    function repayBorrowVerify(\n        address cToken,\n        address payer,\n        address borrower,\n        uint actualRepayAmount,\n        uint borrowerIndex) external {\n        // Shh - currently unused\n        cToken;\n        payer;\n        borrower;\n        actualRepayAmount;\n        borrowerIndex;\n\n        // Shh - we don't ever want this hook to be marked pure\n        if (false) {\n            maxAssets = maxAssets;\n        }\n    }\n\n    /**\n     * @notice Checks if the liquidation should be allowed to occur\n     * @param cTokenBorrowed Asset which was borrowed by the borrower\n     * @param cTokenCollateral Asset which was used as collateral and will be seized\n     * @param liquidator The address repaying the borrow and seizing the collateral\n     * @param borrower The address of the borrower\n     * @param repayAmount The amount of underlying being repaid\n     */\n    function liquidateBorrowAllowed(\n        address cTokenBorrowed,\n        address cTokenCollateral,\n        address liquidator,\n        address borrower,\n        uint repayAmount) external returns (uint) {\n        // Shh - currently unused\n        liquidator;\n\n        if (!markets[cTokenBorrowed].isListed || !markets[cTokenCollateral].isListed) {\n            return uint(Error.MARKET_NOT_LISTED);\n        }\n\n        // *may include Policy Hook-type checks\n\n        /* The borrower must have shortfall in order to be liquidatable */\n        (Error err, , uint shortfall) = getAccountLiquidityInternal(borrower);\n        if (err != Error.NO_ERROR) {\n            return uint(err);\n        }\n        if (shortfall == 0) {\n            return uint(Error.INSUFFICIENT_SHORTFALL);\n        }\n\n        /* The liquidator may not repay more than what is allowed by the closeFactor */\n        uint borrowBalance = CToken(cTokenBorrowed).borrowBalanceStored(borrower);\n        (MathError mathErr, uint maxClose) = mulScalarTruncate(Exp({mantissa: closeFactorMantissa}), borrowBalance);\n        if (mathErr != MathError.NO_ERROR) {\n            return uint(Error.MATH_ERROR);\n        }\n        if (repayAmount > maxClose) {\n            return uint(Error.TOO_MUCH_REPAY);\n        }\n\n        return uint(Error.NO_ERROR);\n    }\n\n    /**\n     * @notice Validates liquidateBorrow and reverts on rejection. May emit logs.\n     * @param cTokenBorrowed Asset which was borrowed by the borrower\n     * @param cTokenCollateral Asset which was used as collateral and will be seized\n     * @param liquidator The address repaying the borrow and seizing the collateral\n     * @param borrower The address of the borrower\n     * @param actualRepayAmount The amount of underlying being repaid\n     */\n    function liquidateBorrowVerify(\n        address cTokenBorrowed,\n        address cTokenCollateral,\n        address liquidator,\n        address borrower,\n        uint actualRepayAmount,\n        uint seizeTokens) external {\n        // Shh - currently unused\n        cTokenBorrowed;\n        cTokenCollateral;\n        liquidator;\n        borrower;\n        actualRepayAmount;\n        seizeTokens;\n\n        // Shh - we don't ever want this hook to be marked pure\n        if (false) {\n            maxAssets = maxAssets;\n        }\n    }\n\n    /**\n     * @notice Checks if the seizing of assets should be allowed to occur\n     * @param cTokenCollateral Asset which was used as collateral and will be seized\n     * @param cTokenBorrowed Asset which was borrowed by the borrower\n     * @param liquidator The address repaying the borrow and seizing the collateral\n     * @param borrower The address of the borrower\n     * @param seizeTokens The number of collateral tokens to seize\n     */\n    function seizeAllowed(\n        address cTokenCollateral,\n        address cTokenBorrowed,\n        address liquidator,\n        address borrower,\n        uint seizeTokens) external returns (uint) {\n        // Pausing is a very serious situation - we revert to sound the alarms\n        require(!seizeGuardianPaused, \"seize is paused\");\n\n        // Shh - currently unused\n        liquidator;\n        borrower;\n        seizeTokens;\n\n        if (!markets[cTokenCollateral].isListed || !markets[cTokenBorrowed].isListed) {\n            return uint(Error.MARKET_NOT_LISTED);\n        }\n\n        if (CToken(cTokenCollateral).comptroller() != CToken(cTokenBorrowed).comptroller()) {\n            return uint(Error.COMPTROLLER_MISMATCH);\n        }\n\n        // *may include Policy Hook-type checks\n\n        return uint(Error.NO_ERROR);\n    }\n\n    /**\n     * @notice Validates seize and reverts on rejection. May emit logs.\n     * @param cTokenCollateral Asset which was used as collateral and will be seized\n     * @param cTokenBorrowed Asset which was borrowed by the borrower\n     * @param liquidator The address repaying the borrow and seizing the collateral\n     * @param borrower The address of the borrower\n     * @param seizeTokens The number of collateral tokens to seize\n     */\n    function seizeVerify(\n        address cTokenCollateral,\n        address cTokenBorrowed,\n        address liquidator,\n        address borrower,\n        uint seizeTokens) external {\n        // Shh - currently unused\n        cTokenCollateral;\n        cTokenBorrowed;\n        liquidator;\n        borrower;\n        seizeTokens;\n\n        // Shh - we don't ever want this hook to be marked pure\n        if (false) {\n            maxAssets = maxAssets;\n        }\n    }\n\n    /**\n     * @notice Checks if the account should be allowed to transfer tokens in the given market\n     * @param cToken The market to verify the transfer against\n     * @param src The account which sources the tokens\n     * @param dst The account which receives the tokens\n     * @param transferTokens The number of cTokens to transfer\n     * @return 0 if the transfer is allowed, otherwise a semi-opaque error code (See ErrorReporter.sol)\n     */\n    function transferAllowed(address cToken, address src, address dst, uint transferTokens) external returns (uint) {\n        // Pausing is a very serious situation - we revert to sound the alarms\n        require(!transferGuardianPaused, \"transfer is paused\");\n\n        // Shh - currently unused\n        dst;\n\n        // *may include Policy Hook-type checks\n\n        // Currently the only consideration is whether or not\n        //  the src is allowed to redeem this many tokens\n        return redeemAllowedInternal(cToken, src, transferTokens);\n    }\n\n    /**\n     * @notice Validates transfer and reverts on rejection. May emit logs.\n     * @param cToken Asset being transferred\n     * @param src The account which sources the tokens\n     * @param dst The account which receives the tokens\n     * @param transferTokens The number of cTokens to transfer\n     */\n    function transferVerify(address cToken, address src, address dst, uint transferTokens) external {\n        // Shh - currently unused\n        cToken;\n        src;\n        dst;\n        transferTokens;\n\n        // Shh - we don't ever want this hook to be marked pure\n        if (false) {\n            maxAssets = maxAssets;\n        }\n    }\n\n    /*** Liquidity/Liquidation Calculations ***/\n\n    /**\n     * @dev Local vars for avoiding stack-depth limits in calculating account liquidity.\n     *  Note that `cTokenBalance` is the number of cTokens the account owns in the market,\n     *  whereas `borrowBalance` is the amount of underlying that the account has borrowed.\n     */\n    struct AccountLiquidityLocalVars {\n        uint sumCollateral;\n        uint sumBorrowPlusEffects;\n        uint cTokenBalance;\n        uint borrowBalance;\n        uint exchangeRateMantissa;\n        uint oraclePriceMantissa;\n        Exp collateralFactor;\n        Exp exchangeRate;\n        Exp oraclePrice;\n        Exp tokensToEther;\n    }\n\n    /**\n     * @notice Determine the current account liquidity wrt collateral requirements\n     * @return (possible error code (semi-opaque),\n                account liquidity in excess of collateral requirements,\n     *          account shortfall below collateral requirements)\n     */\n    function getAccountLiquidity(address account) public view returns (uint, uint, uint) {\n        (Error err, uint liquidity, uint shortfall) = getHypotheticalAccountLiquidityInternal(account, CToken(0), 0, 0);\n\n        return (uint(err), liquidity, shortfall);\n    }\n\n    /**\n     * @notice Determine the current account liquidity wrt collateral requirements\n     * @return (possible error code,\n                account liquidity in excess of collateral requirements,\n     *          account shortfall below collateral requirements)\n     */\n    function getAccountLiquidityInternal(address account) internal view returns (Error, uint, uint) {\n        return getHypotheticalAccountLiquidityInternal(account, CToken(0), 0, 0);\n    }\n\n    /**\n     * @notice Determine what the account liquidity would be if the given amounts were redeemed/borrowed\n     * @param cTokenModify The market to hypothetically redeem/borrow in\n     * @param account The account to determine liquidity for\n     * @param redeemTokens The number of tokens to hypothetically redeem\n     * @param borrowAmount The amount of underlying to hypothetically borrow\n     * @dev Note that we calculate the exchangeRateStored for each collateral cToken using stored data,\n     *  without calculating accumulated interest.\n     * @return (possible error code,\n                hypothetical account liquidity in excess of collateral requirements,\n     *          hypothetical account shortfall below collateral requirements)\n     */\n    function getHypotheticalAccountLiquidityInternal(\n        address account,\n        CToken cTokenModify,\n        uint redeemTokens,\n        uint borrowAmount) internal view returns (Error, uint, uint) {\n\n        AccountLiquidityLocalVars memory vars; // Holds all our calculation results\n        uint oErr;\n        MathError mErr;\n\n        // For each asset the account is in\n        CToken[] memory assets = accountAssets[account];\n        for (uint i = 0; i < assets.length; i++) {\n            CToken asset = assets[i];\n\n            // Read the balances and exchange rate from the cToken\n            (oErr, vars.cTokenBalance, vars.borrowBalance, vars.exchangeRateMantissa) = asset.getAccountSnapshot(account);\n            if (oErr != 0) { // semi-opaque error code, we assume NO_ERROR == 0 is invariant between upgrades\n                return (Error.SNAPSHOT_ERROR, 0, 0);\n            }\n            vars.collateralFactor = Exp({mantissa: markets[address(asset)].collateralFactorMantissa});\n            vars.exchangeRate = Exp({mantissa: vars.exchangeRateMantissa});\n\n            // Get the normalized price of the asset\n            vars.oraclePriceMantissa = oracle.getUnderlyingPrice(asset);\n            if (vars.oraclePriceMantissa == 0) {\n                return (Error.PRICE_ERROR, 0, 0);\n            }\n            vars.oraclePrice = Exp({mantissa: vars.oraclePriceMantissa});\n\n            // Pre-compute a conversion factor from tokens -> ether (normalized price value)\n            (mErr, vars.tokensToEther) = mulExp3(vars.collateralFactor, vars.exchangeRate, vars.oraclePrice);\n            if (mErr != MathError.NO_ERROR) {\n                return (Error.MATH_ERROR, 0, 0);\n            }\n\n            // sumCollateral += tokensToEther * cTokenBalance\n            (mErr, vars.sumCollateral) = mulScalarTruncateAddUInt(vars.tokensToEther, vars.cTokenBalance, vars.sumCollateral);\n            if (mErr != MathError.NO_ERROR) {\n                return (Error.MATH_ERROR, 0, 0);\n            }\n\n            // sumBorrowPlusEffects += oraclePrice * borrowBalance\n            (mErr, vars.sumBorrowPlusEffects) = mulScalarTruncateAddUInt(vars.oraclePrice, vars.borrowBalance, vars.sumBorrowPlusEffects);\n            if (mErr != MathError.NO_ERROR) {\n                return (Error.MATH_ERROR, 0, 0);\n            }\n\n            // Calculate effects of interacting with cTokenModify\n            if (asset == cTokenModify) {\n                // redeem effect\n                // sumBorrowPlusEffects += tokensToEther * redeemTokens\n                (mErr, vars.sumBorrowPlusEffects) = mulScalarTruncateAddUInt(vars.tokensToEther, redeemTokens, vars.sumBorrowPlusEffects);\n                if (mErr != MathError.NO_ERROR) {\n                    return (Error.MATH_ERROR, 0, 0);\n                }\n\n                // borrow effect\n                // sumBorrowPlusEffects += oraclePrice * borrowAmount\n                (mErr, vars.sumBorrowPlusEffects) = mulScalarTruncateAddUInt(vars.oraclePrice, borrowAmount, vars.sumBorrowPlusEffects);\n                if (mErr != MathError.NO_ERROR) {\n                    return (Error.MATH_ERROR, 0, 0);\n                }\n            }\n        }\n\n        // These are safe, as the underflow condition is checked first\n        if (vars.sumCollateral > vars.sumBorrowPlusEffects) {\n            return (Error.NO_ERROR, vars.sumCollateral - vars.sumBorrowPlusEffects, 0);\n        } else {\n            return (Error.NO_ERROR, 0, vars.sumBorrowPlusEffects - vars.sumCollateral);\n        }\n    }\n\n    /**\n     * @notice Calculate number of tokens of collateral asset to seize given an underlying amount\n     * @dev Used in liquidation (called in cToken.liquidateBorrowFresh)\n     * @param cTokenBorrowed The address of the borrowed cToken\n     * @param cTokenCollateral The address of the collateral cToken\n     * @param actualRepayAmount The amount of cTokenBorrowed underlying to convert into cTokenCollateral tokens\n     * @return (errorCode, number of cTokenCollateral tokens to be seized in a liquidation)\n     */\n    function liquidateCalculateSeizeTokens(address cTokenBorrowed, address cTokenCollateral, uint actualRepayAmount) external view returns (uint, uint) {\n        /* Read oracle prices for borrowed and collateral markets */\n        uint priceBorrowedMantissa = oracle.getUnderlyingPrice(CToken(cTokenBorrowed));\n        uint priceCollateralMantissa = oracle.getUnderlyingPrice(CToken(cTokenCollateral));\n        if (priceBorrowedMantissa == 0 || priceCollateralMantissa == 0) {\n            return (uint(Error.PRICE_ERROR), 0);\n        }\n\n        /*\n         * Get the exchange rate and calculate the number of collateral tokens to seize:\n         *  seizeAmount = actualRepayAmount * liquidationIncentive * priceBorrowed / priceCollateral\n         *  seizeTokens = seizeAmount / exchangeRate\n         *   = actualRepayAmount * (liquidationIncentive * priceBorrowed) / (priceCollateral * exchangeRate)\n         */\n        uint exchangeRateMantissa = CToken(cTokenCollateral).exchangeRateStored(); // Note: reverts on error\n        uint seizeTokens;\n        Exp memory numerator;\n        Exp memory denominator;\n        Exp memory ratio;\n        MathError mathErr;\n\n        (mathErr, numerator) = mulExp(liquidationIncentiveMantissa, priceBorrowedMantissa);\n        if (mathErr != MathError.NO_ERROR) {\n            return (uint(Error.MATH_ERROR), 0);\n        }\n\n        (mathErr, denominator) = mulExp(priceCollateralMantissa, exchangeRateMantissa);\n        if (mathErr != MathError.NO_ERROR) {\n            return (uint(Error.MATH_ERROR), 0);\n        }\n\n        (mathErr, ratio) = divExp(numerator, denominator);\n        if (mathErr != MathError.NO_ERROR) {\n            return (uint(Error.MATH_ERROR), 0);\n        }\n\n        (mathErr, seizeTokens) = mulScalarTruncate(ratio, actualRepayAmount);\n        if (mathErr != MathError.NO_ERROR) {\n            return (uint(Error.MATH_ERROR), 0);\n        }\n\n        return (uint(Error.NO_ERROR), seizeTokens);\n    }\n\n    /*** Admin Functions ***/\n\n    /**\n      * @notice Sets a new price oracle for the comptroller\n      * @dev Admin function to set a new price oracle\n      * @return uint 0=success, otherwise a failure (see ErrorReporter.sol for details)\n      */\n    function _setPriceOracle(PriceOracle newOracle) public returns (uint) {\n        // Check caller is admin\n        if (msg.sender != admin) {\n            return fail(Error.UNAUTHORIZED, FailureInfo.SET_PRICE_ORACLE_OWNER_CHECK);\n        }\n\n        // Track the old oracle for the comptroller\n        PriceOracle oldOracle = oracle;\n\n        // Set comptroller's oracle to newOracle\n        oracle = newOracle;\n\n        // Emit NewPriceOracle(oldOracle, newOracle)\n        emit NewPriceOracle(oldOracle, newOracle);\n\n        return uint(Error.NO_ERROR);\n    }\n\n    /**\n      * @notice Sets the closeFactor used when liquidating borrows\n      * @dev Admin function to set closeFactor\n      * @param newCloseFactorMantissa New close factor, scaled by 1e18\n      * @return uint 0=success, otherwise a failure. (See ErrorReporter for details)\n      */\n    function _setCloseFactor(uint newCloseFactorMantissa) external returns (uint256) {\n        // Check caller is admin\n        if (msg.sender != admin) {\n            return fail(Error.UNAUTHORIZED, FailureInfo.SET_CLOSE_FACTOR_OWNER_CHECK);\n        }\n\n        Exp memory newCloseFactorExp = Exp({mantissa: newCloseFactorMantissa});\n        Exp memory lowLimit = Exp({mantissa: closeFactorMinMantissa});\n        if (lessThanOrEqualExp(newCloseFactorExp, lowLimit)) {\n            return fail(Error.INVALID_CLOSE_FACTOR, FailureInfo.SET_CLOSE_FACTOR_VALIDATION);\n        }\n\n        Exp memory highLimit = Exp({mantissa: closeFactorMaxMantissa});\n        if (lessThanExp(highLimit, newCloseFactorExp)) {\n            return fail(Error.INVALID_CLOSE_FACTOR, FailureInfo.SET_CLOSE_FACTOR_VALIDATION);\n        }\n\n        uint oldCloseFactorMantissa = closeFactorMantissa;\n        closeFactorMantissa = newCloseFactorMantissa;\n        emit NewCloseFactor(oldCloseFactorMantissa, closeFactorMantissa);\n\n        return uint(Error.NO_ERROR);\n    }\n\n    /**\n      * @notice Sets the collateralFactor for a market\n      * @dev Admin function to set per-market collateralFactor\n      * @param cToken The market to set the factor on\n      * @param newCollateralFactorMantissa The new collateral factor, scaled by 1e18\n      * @return uint 0=success, otherwise a failure. (See ErrorReporter for details)\n      */\n    function _setCollateralFactor(CToken cToken, uint newCollateralFactorMantissa) external returns (uint256) {\n        // Check caller is admin\n        if (msg.sender != admin) {\n            return fail(Error.UNAUTHORIZED, FailureInfo.SET_COLLATERAL_FACTOR_OWNER_CHECK);\n        }\n\n        // Verify market is listed\n        Market storage market = markets[address(cToken)];\n        if (!market.isListed) {\n            return fail(Error.MARKET_NOT_LISTED, FailureInfo.SET_COLLATERAL_FACTOR_NO_EXISTS);\n        }\n\n        Exp memory newCollateralFactorExp = Exp({mantissa: newCollateralFactorMantissa});\n\n        // Check collateral factor <= 0.9\n        Exp memory highLimit = Exp({mantissa: collateralFactorMaxMantissa});\n        if (lessThanExp(highLimit, newCollateralFactorExp)) {\n            return fail(Error.INVALID_COLLATERAL_FACTOR, FailureInfo.SET_COLLATERAL_FACTOR_VALIDATION);\n        }\n\n        // If collateral factor != 0, fail if price == 0\n        if (newCollateralFactorMantissa != 0 && oracle.getUnderlyingPrice(cToken) == 0) {\n            return fail(Error.PRICE_ERROR, FailureInfo.SET_COLLATERAL_FACTOR_WITHOUT_PRICE);\n        }\n\n        // Set market's collateral factor to new collateral factor, remember old value\n        uint oldCollateralFactorMantissa = market.collateralFactorMantissa;\n        market.collateralFactorMantissa = newCollateralFactorMantissa;\n\n        // Emit event with asset, old collateral factor, and new collateral factor\n        emit NewCollateralFactor(cToken, oldCollateralFactorMantissa, newCollateralFactorMantissa);\n\n        return uint(Error.NO_ERROR);\n    }\n\n    /**\n      * @notice Sets maxAssets which controls how many markets can be entered\n      * @dev Admin function to set maxAssets\n      * @param newMaxAssets New max assets\n      * @return uint 0=success, otherwise a failure. (See ErrorReporter for details)\n      */\n    function _setMaxAssets(uint newMaxAssets) external returns (uint) {\n        // Check caller is admin\n        if (msg.sender != admin) {\n            return fail(Error.UNAUTHORIZED, FailureInfo.SET_MAX_ASSETS_OWNER_CHECK);\n        }\n\n        uint oldMaxAssets = maxAssets;\n        maxAssets = newMaxAssets;\n        emit NewMaxAssets(oldMaxAssets, newMaxAssets);\n\n        return uint(Error.NO_ERROR);\n    }\n\n    /**\n      * @notice Sets liquidationIncentive\n      * @dev Admin function to set liquidationIncentive\n      * @param newLiquidationIncentiveMantissa New liquidationIncentive scaled by 1e18\n      * @return uint 0=success, otherwise a failure. (See ErrorReporter for details)\n      */\n    function _setLiquidationIncentive(uint newLiquidationIncentiveMantissa) external returns (uint) {\n        // Check caller is admin\n        if (msg.sender != admin) {\n            return fail(Error.UNAUTHORIZED, FailureInfo.SET_LIQUIDATION_INCENTIVE_OWNER_CHECK);\n        }\n\n        // Check de-scaled min <= newLiquidationIncentive <= max\n        Exp memory newLiquidationIncentive = Exp({mantissa: newLiquidationIncentiveMantissa});\n        Exp memory minLiquidationIncentive = Exp({mantissa: liquidationIncentiveMinMantissa});\n        if (lessThanExp(newLiquidationIncentive, minLiquidationIncentive)) {\n            return fail(Error.INVALID_LIQUIDATION_INCENTIVE, FailureInfo.SET_LIQUIDATION_INCENTIVE_VALIDATION);\n        }\n\n        Exp memory maxLiquidationIncentive = Exp({mantissa: liquidationIncentiveMaxMantissa});\n        if (lessThanExp(maxLiquidationIncentive, newLiquidationIncentive)) {\n            return fail(Error.INVALID_LIQUIDATION_INCENTIVE, FailureInfo.SET_LIQUIDATION_INCENTIVE_VALIDATION);\n        }\n\n        // Save current value for use in log\n        uint oldLiquidationIncentiveMantissa = liquidationIncentiveMantissa;\n\n        // Set liquidation incentive to new incentive\n        liquidationIncentiveMantissa = newLiquidationIncentiveMantissa;\n\n        // Emit event with old incentive, new incentive\n        emit NewLiquidationIncentive(oldLiquidationIncentiveMantissa, newLiquidationIncentiveMantissa);\n\n        return uint(Error.NO_ERROR);\n    }\n\n    /**\n      * @notice Add the market to the markets mapping and set it as listed\n      * @dev Admin function to set isListed and add support for the market\n      * @param cToken The address of the market (token) to list\n      * @return uint 0=success, otherwise a failure. (See enum Error for details)\n      */\n    function _supportMarket(CToken cToken) external returns (uint) {\n        if (msg.sender != admin) {\n            return fail(Error.UNAUTHORIZED, FailureInfo.SUPPORT_MARKET_OWNER_CHECK);\n        }\n\n        if (markets[address(cToken)].isListed) {\n            return fail(Error.MARKET_ALREADY_LISTED, FailureInfo.SUPPORT_MARKET_EXISTS);\n        }\n\n        cToken.isCToken(); // Sanity check to make sure its really a CToken\n\n        markets[address(cToken)] = Market({isListed: true, collateralFactorMantissa: 0});\n        emit MarketListed(cToken);\n\n        return uint(Error.NO_ERROR);\n    }\n\n    /**\n     * @notice Admin function to change the Pause Guardian\n     * @param newPauseGuardian The address of the new Pause Guardian\n     * @return uint 0=success, otherwise a failure. (See enum Error for details)\n     */\n    function _setPauseGuardian(address newPauseGuardian) public returns (uint) {\n        if (msg.sender != admin) {\n            return fail(Error.UNAUTHORIZED, FailureInfo.SET_PAUSE_GUARDIAN_OWNER_CHECK);\n        }\n\n        // Save current value for inclusion in log\n        address oldPauseGuardian = pauseGuardian;\n\n        // Store pauseGuardian with value newPauseGuardian\n        pauseGuardian = newPauseGuardian;\n\n        // Emit NewPauseGuardian(OldPauseGuardian, NewPauseGuardian)\n        emit NewPauseGuardian(oldPauseGuardian, pauseGuardian);\n\n        return uint(Error.NO_ERROR);\n    }\n\n    function _setMintPaused(bool state) public returns (bool) {\n        require(msg.sender == pauseGuardian || msg.sender == admin, \"only pause guardian and admin can pause\");\n        require(msg.sender == admin || state == true, \"only admin can unpause\");\n\n        mintGuardianPaused = state;\n        emit ActionPaused(\"Mint\", state);\n        return state;\n    }\n\n    function _setBorrowPaused(bool state) public returns (bool) {\n        require(msg.sender == pauseGuardian || msg.sender == admin, \"only pause guardian and admin can pause\");\n        require(msg.sender == admin || state == true, \"only admin can unpause\");\n\n        borrowGuardianPaused = state;\n        emit ActionPaused(\"Borrow\", state);\n        return state;\n    }\n\n    function _setTransferPaused(bool state) public returns (bool) {\n        require(msg.sender == pauseGuardian || msg.sender == admin, \"only pause guardian and admin can pause\");\n        require(msg.sender == admin || state == true, \"only admin can unpause\");\n\n        transferGuardianPaused = state;\n        emit ActionPaused(\"Transfer\", state);\n        return state;\n    }\n\n    function _setSeizePaused(bool state) public returns (bool) {\n        require(msg.sender == pauseGuardian || msg.sender == admin, \"only pause guardian and admin can pause\");\n        require(msg.sender == admin || state == true, \"only admin can unpause\");\n\n        seizeGuardianPaused = state;\n        emit ActionPaused(\"Seize\", state);\n        return state;\n    }\n\n    function _become(Unitroller unitroller) public {\n        require(msg.sender == unitroller.admin(), \"only unitroller admin can change brains\");\n\n        uint changeStatus = unitroller._acceptImplementation();\n        require(changeStatus == 0, \"change not authorized\");\n    }\n}",
  "sourcePath": "/home/akshay/workspace/somish/Compound-Finance/compound-protocol/contracts/Comptroller.sol",
  "compiler": {
    "name": "solc",
    "version": "0.5.12+commit.7709ece9.Emscripten.clang"
  },
  "schemaVersion": "3.0.23",
  "updatedAt": "2020-03-04T10:50:01.378Z",
  "devdoc": {
    "author": "Compound",
    "methods": {
      "_setCloseFactor(uint256)": {
        "details": "Admin function to set closeFactor",
        "params": {
          "newCloseFactorMantissa": "New close factor, scaled by 1e18"
        },
        "return": "uint 0=success, otherwise a failure. (See ErrorReporter for details)"
      },
      "_setCollateralFactor(address,uint256)": {
        "details": "Admin function to set per-market collateralFactor",
        "params": {
          "cToken": "The market to set the factor on",
          "newCollateralFactorMantissa": "The new collateral factor, scaled by 1e18"
        },
        "return": "uint 0=success, otherwise a failure. (See ErrorReporter for details)"
      },
      "_setLiquidationIncentive(uint256)": {
        "details": "Admin function to set liquidationIncentive",
        "params": {
          "newLiquidationIncentiveMantissa": "New liquidationIncentive scaled by 1e18"
        },
        "return": "uint 0=success, otherwise a failure. (See ErrorReporter for details)"
      },
      "_setMaxAssets(uint256)": {
        "details": "Admin function to set maxAssets",
        "params": {
          "newMaxAssets": "New max assets"
        },
        "return": "uint 0=success, otherwise a failure. (See ErrorReporter for details)"
      },
      "_setPauseGuardian(address)": {
        "params": {
          "newPauseGuardian": "The address of the new Pause Guardian"
        },
        "return": "uint 0=success, otherwise a failure. (See enum Error for details)"
      },
      "_setPriceOracle(address)": {
        "details": "Admin function to set a new price oracle",
        "return": "uint 0=success, otherwise a failure (see ErrorReporter.sol for details)"
      },
      "_supportMarket(address)": {
        "details": "Admin function to set isListed and add support for the market",
        "params": {
          "cToken": "The address of the market (token) to list"
        },
        "return": "uint 0=success, otherwise a failure. (See enum Error for details)"
      },
      "borrowAllowed(address,address,uint256)": {
        "params": {
          "borrowAmount": "The amount of underlying the account would borrow",
          "borrower": "The account which would borrow the asset",
          "cToken": "The market to verify the borrow against"
        },
        "return": "0 if the borrow is allowed, otherwise a semi-opaque error code (See ErrorReporter.sol)"
      },
      "borrowVerify(address,address,uint256)": {
        "params": {
          "borrowAmount": "The amount of the underlying asset requested to borrow",
          "borrower": "The address borrowing the underlying",
          "cToken": "Asset whose underlying is being borrowed"
        }
      },
      "checkMembership(address,address)": {
        "params": {
          "account": "The address of the account to check",
          "cToken": "The cToken to check"
        },
        "return": "True if the account is in the asset, otherwise false."
      },
      "enterMarkets(address[])": {
        "params": {
          "cTokens": "The list of addresses of the cToken markets to be enabled"
        },
        "return": "Success indicator for whether each corresponding market was entered"
      },
      "exitMarket(address)": {
        "details": "Sender must not have an outstanding borrow balance in the asset, or be providing neccessary collateral for an outstanding borrow.",
        "params": {
          "cTokenAddress": "The address of the asset to be removed"
        },
        "return": "Whether or not the account successfully exited the market"
      },
      "getAccountLiquidity(address)": {
        "return": "(possible error code (semi-opaque), account liquidity in excess of collateral requirements,         account shortfall below collateral requirements)"
      },
      "getAssetsIn(address)": {
        "params": {
          "account": "The address of the account to pull assets for"
        },
        "return": "A dynamic list with the assets the account has entered"
      },
      "liquidateBorrowAllowed(address,address,address,address,uint256)": {
        "params": {
          "borrower": "The address of the borrower",
          "cTokenBorrowed": "Asset which was borrowed by the borrower",
          "cTokenCollateral": "Asset which was used as collateral and will be seized",
          "liquidator": "The address repaying the borrow and seizing the collateral",
          "repayAmount": "The amount of underlying being repaid"
        }
      },
      "liquidateBorrowVerify(address,address,address,address,uint256,uint256)": {
        "params": {
          "actualRepayAmount": "The amount of underlying being repaid",
          "borrower": "The address of the borrower",
          "cTokenBorrowed": "Asset which was borrowed by the borrower",
          "cTokenCollateral": "Asset which was used as collateral and will be seized",
          "liquidator": "The address repaying the borrow and seizing the collateral"
        }
      },
      "liquidateCalculateSeizeTokens(address,address,uint256)": {
        "details": "Used in liquidation (called in cToken.liquidateBorrowFresh)",
        "params": {
          "actualRepayAmount": "The amount of cTokenBorrowed underlying to convert into cTokenCollateral tokens",
          "cTokenBorrowed": "The address of the borrowed cToken",
          "cTokenCollateral": "The address of the collateral cToken"
        },
        "return": "(errorCode, number of cTokenCollateral tokens to be seized in a liquidation)"
      },
      "mintAllowed(address,address,uint256)": {
        "params": {
          "cToken": "The market to verify the mint against",
          "mintAmount": "The amount of underlying being supplied to the market in exchange for tokens",
          "minter": "The account which would get the minted tokens"
        },
        "return": "0 if the mint is allowed, otherwise a semi-opaque error code (See ErrorReporter.sol)"
      },
      "mintVerify(address,address,uint256,uint256)": {
        "params": {
          "actualMintAmount": "The amount of the underlying asset being minted",
          "cToken": "Asset being minted",
          "mintTokens": "The number of tokens being minted",
          "minter": "The address minting the tokens"
        }
      },
      "redeemAllowed(address,address,uint256)": {
        "params": {
          "cToken": "The market to verify the redeem against",
          "redeemTokens": "The number of cTokens to exchange for the underlying asset in the market",
          "redeemer": "The account which would redeem the tokens"
        },
        "return": "0 if the redeem is allowed, otherwise a semi-opaque error code (See ErrorReporter.sol)"
      },
      "redeemVerify(address,address,uint256,uint256)": {
        "params": {
          "cToken": "Asset being redeemed",
          "redeemAmount": "The amount of the underlying asset being redeemed",
          "redeemTokens": "The number of tokens being redeemed",
          "redeemer": "The address redeeming the tokens"
        }
      },
      "repayBorrowAllowed(address,address,address,uint256)": {
        "params": {
          "borrower": "The account which would borrowed the asset",
          "cToken": "The market to verify the repay against",
          "payer": "The account which would repay the asset",
          "repayAmount": "The amount of the underlying asset the account would repay"
        },
        "return": "0 if the repay is allowed, otherwise a semi-opaque error code (See ErrorReporter.sol)"
      },
      "repayBorrowVerify(address,address,address,uint256,uint256)": {
        "params": {
          "actualRepayAmount": "The amount of underlying being repaid",
          "borrower": "The address of the borrower",
          "cToken": "Asset being repaid",
          "payer": "The address repaying the borrow"
        }
      },
      "seizeAllowed(address,address,address,address,uint256)": {
        "params": {
          "borrower": "The address of the borrower",
          "cTokenBorrowed": "Asset which was borrowed by the borrower",
          "cTokenCollateral": "Asset which was used as collateral and will be seized",
          "liquidator": "The address repaying the borrow and seizing the collateral",
          "seizeTokens": "The number of collateral tokens to seize"
        }
      },
      "seizeVerify(address,address,address,address,uint256)": {
        "params": {
          "borrower": "The address of the borrower",
          "cTokenBorrowed": "Asset which was borrowed by the borrower",
          "cTokenCollateral": "Asset which was used as collateral and will be seized",
          "liquidator": "The address repaying the borrow and seizing the collateral",
          "seizeTokens": "The number of collateral tokens to seize"
        }
      },
      "transferAllowed(address,address,address,uint256)": {
        "params": {
          "cToken": "The market to verify the transfer against",
          "dst": "The account which receives the tokens",
          "src": "The account which sources the tokens",
          "transferTokens": "The number of cTokens to transfer"
        },
        "return": "0 if the transfer is allowed, otherwise a semi-opaque error code (See ErrorReporter.sol)"
      },
      "transferVerify(address,address,address,uint256)": {
        "params": {
          "cToken": "Asset being transferred",
          "dst": "The account which receives the tokens",
          "src": "The account which sources the tokens",
          "transferTokens": "The number of cTokens to transfer"
        }
      }
    },
    "title": "Compound's Comptroller Contract"
  },
  "userdoc": {
    "methods": {
      "_setCloseFactor(uint256)": {
        "notice": "Sets the closeFactor used when liquidating borrows"
      },
      "_setCollateralFactor(address,uint256)": {
        "notice": "Sets the collateralFactor for a market"
      },
      "_setLiquidationIncentive(uint256)": {
        "notice": "Sets liquidationIncentive"
      },
      "_setMaxAssets(uint256)": {
        "notice": "Sets maxAssets which controls how many markets can be entered"
      },
      "_setPauseGuardian(address)": {
        "notice": "Admin function to change the Pause Guardian"
      },
      "_setPriceOracle(address)": {
        "notice": "Sets a new price oracle for the comptroller"
      },
      "_supportMarket(address)": {
        "notice": "Add the market to the markets mapping and set it as listed"
      },
      "borrowAllowed(address,address,uint256)": {
        "notice": "Checks if the account should be allowed to borrow the underlying asset of the given market"
      },
      "borrowVerify(address,address,uint256)": {
        "notice": "Validates borrow and reverts on rejection. May emit logs."
      },
      "checkMembership(address,address)": {
        "notice": "Returns whether the given account is entered in the given asset"
      },
      "enterMarkets(address[])": {
        "notice": "Add assets to be included in account liquidity calculation"
      },
      "exitMarket(address)": {
        "notice": "Removes asset from sender's account liquidity calculation"
      },
      "getAccountLiquidity(address)": {
        "notice": "Determine the current account liquidity wrt collateral requirements"
      },
      "getAssetsIn(address)": {
        "notice": "Returns the assets an account has entered"
      },
      "liquidateBorrowAllowed(address,address,address,address,uint256)": {
        "notice": "Checks if the liquidation should be allowed to occur"
      },
      "liquidateBorrowVerify(address,address,address,address,uint256,uint256)": {
        "notice": "Validates liquidateBorrow and reverts on rejection. May emit logs."
      },
      "liquidateCalculateSeizeTokens(address,address,uint256)": {
        "notice": "Calculate number of tokens of collateral asset to seize given an underlying amount"
      },
      "mintAllowed(address,address,uint256)": {
        "notice": "Checks if the account should be allowed to mint tokens in the given market"
      },
      "mintVerify(address,address,uint256,uint256)": {
        "notice": "Validates mint and reverts on rejection. May emit logs."
      },
      "redeemAllowed(address,address,uint256)": {
        "notice": "Checks if the account should be allowed to redeem tokens in the given market"
      },
      "redeemVerify(address,address,uint256,uint256)": {
        "notice": "Validates redeem and reverts on rejection. May emit logs."
      },
      "repayBorrowAllowed(address,address,address,uint256)": {
        "notice": "Checks if the account should be allowed to repay a borrow in the given market"
      },
      "repayBorrowVerify(address,address,address,uint256,uint256)": {
        "notice": "Validates repayBorrow and reverts on rejection. May emit logs."
      },
      "seizeAllowed(address,address,address,address,uint256)": {
        "notice": "Checks if the seizing of assets should be allowed to occur"
      },
      "seizeVerify(address,address,address,address,uint256)": {
        "notice": "Validates seize and reverts on rejection. May emit logs."
      },
      "transferAllowed(address,address,address,uint256)": {
        "notice": "Checks if the account should be allowed to transfer tokens in the given market"
      },
      "transferVerify(address,address,address,uint256)": {
        "notice": "Validates transfer and reverts on rejection. May emit logs."
      }
    }
  }
}