{
  "contractName": "PriceOracleOTL",
  "abi": [
    {
      "inputs": [
        {
          "internalType": "address",
          "name": "comptroller_",
          "type": "address"
        }
      ],
      "payable": false,
      "stateMutability": "nonpayable",
      "type": "constructor"
    },
    {
      "anonymous": false,
      "inputs": [
        {
          "indexed": true,
          "internalType": "address",
          "name": "oldPoster",
          "type": "address"
        },
        {
          "indexed": true,
          "internalType": "address",
          "name": "newPoster",
          "type": "address"
        }
      ],
      "name": "NewPoster",
      "type": "event"
    },
    {
      "anonymous": false,
      "inputs": [
        {
          "indexed": true,
          "internalType": "address",
          "name": "asset",
          "type": "address"
        },
        {
          "indexed": true,
          "internalType": "address",
          "name": "postedBy",
          "type": "address"
        },
        {
          "indexed": false,
          "internalType": "uint256",
          "name": "previousPriceMantissa",
          "type": "uint256"
        },
        {
          "indexed": true,
          "internalType": "uint256",
          "name": "requestedPriceMantissa",
          "type": "uint256"
        },
        {
          "indexed": false,
          "internalType": "uint256",
          "name": "newPriceMantissa",
          "type": "uint256"
        }
      ],
      "name": "PricePosted",
      "type": "event"
    },
    {
      "payable": true,
      "stateMutability": "payable",
      "type": "fallback"
    },
    {
      "constant": true,
      "inputs": [],
      "name": "admin",
      "outputs": [
        {
          "internalType": "address payable",
          "name": "",
          "type": "address"
        }
      ],
      "payable": false,
      "stateMutability": "view",
      "type": "function"
    },
    {
      "constant": true,
      "inputs": [],
      "name": "comptroller",
      "outputs": [
        {
          "internalType": "contract Comptroller",
          "name": "",
          "type": "address"
        }
      ],
      "payable": false,
      "stateMutability": "view",
      "type": "function"
    },
    {
      "constant": true,
      "inputs": [],
      "name": "isPriceOracle",
      "outputs": [
        {
          "internalType": "bool",
          "name": "",
          "type": "bool"
        }
      ],
      "payable": false,
      "stateMutability": "view",
      "type": "function"
    },
    {
      "constant": true,
      "inputs": [],
      "name": "poster",
      "outputs": [
        {
          "internalType": "address payable",
          "name": "",
          "type": "address"
        }
      ],
      "payable": false,
      "stateMutability": "view",
      "type": "function"
    },
    {
      "constant": true,
      "inputs": [
        {
          "internalType": "contract CToken",
          "name": "cToken",
          "type": "address"
        }
      ],
      "name": "getUnderlyingPrice",
      "outputs": [
        {
          "internalType": "uint256",
          "name": "",
          "type": "uint256"
        }
      ],
      "payable": false,
      "stateMutability": "view",
      "type": "function"
    },
    {
      "constant": false,
      "inputs": [
        {
          "internalType": "contract CToken",
          "name": "cToken",
          "type": "address"
        },
        {
          "internalType": "uint256",
          "name": "underlyingPriceMantissa",
          "type": "uint256"
        }
      ],
      "name": "setUnderlyingPrice",
      "outputs": [],
      "payable": false,
      "stateMutability": "nonpayable",
      "type": "function"
    },
    {
      "constant": false,
      "inputs": [
        {
          "internalType": "address",
          "name": "asset",
          "type": "address"
        },
        {
          "internalType": "uint256",
          "name": "priceMantissa",
          "type": "uint256"
        }
      ],
      "name": "setDirectPrice",
      "outputs": [],
      "payable": false,
      "stateMutability": "nonpayable",
      "type": "function"
    },
    {
      "constant": true,
      "inputs": [
        {
          "internalType": "address",
          "name": "asset",
          "type": "address"
        }
      ],
      "name": "assetPrices",
      "outputs": [
        {
          "internalType": "uint256",
          "name": "",
          "type": "uint256"
        }
      ],
      "payable": false,
      "stateMutability": "view",
      "type": "function"
    },
    {
      "constant": false,
      "inputs": [
        {
          "internalType": "address payable",
          "name": "newPoster",
          "type": "address"
        }
      ],
      "name": "_setPoster",
      "outputs": [],
      "payable": false,
      "stateMutability": "nonpayable",
      "type": "function"
    }
  ],
  "bytecode": "0x608060405234801561001057600080fd5b506040516108393803806108398339818101604052602081101561003357600080fd5b5051600080546001600160a01b03199081166001600160a01b03841617909155600180543392168217905561006790610091565b506002805460ff60a01b1916740100000000000000000000000000000000000000001790556100ed565b6002546040516001600160a01b038084169216907fd8209502cb6dab3843acd5ce51ae027a6f3488c57c2d4aedac2d94501dfcfc8d90600090a3600280546001600160a01b0319166001600160a01b0392909216919091179055565b61073d806100fc6000396000f3fe6080604052600436106100865760003560e01c80635fe3b567116100595780635fe3b567146101b157806366331bba146101e2578063809597211461020b578063f851a44014610220578063fc57d4df1461023557610086565b806309a8acb0146100c5578063127ffda0146101005780635d496818146101395780635e9a523c1461016c575b6040805162461bcd60e51b815260206004820152600f60248201526e11985b1b189858dac814995d995c9d608a1b604482015290519081900360640190fd5b3480156100d157600080fd5b506100fe600480360360408110156100e857600080fd5b506001600160a01b038135169060200135610268565b005b34801561010c57600080fd5b506100fe6004803603604081101561012357600080fd5b506001600160a01b038135169060200135610342565b34801561014557600080fd5b506100fe6004803603602081101561015c57600080fd5b50356001600160a01b03166104eb565b34801561017857600080fd5b5061019f6004803603602081101561018f57600080fd5b50356001600160a01b0316610545565b60408051918252519081900360200190f35b3480156101bd57600080fd5b506101c6610564565b604080516001600160a01b039092168252519081900360200190f35b3480156101ee57600080fd5b506101f7610573565b604080519115158252519081900360200190f35b34801561021757600080fd5b506101c6610578565b34801561022c57600080fd5b506101c6610587565b34801561024157600080fd5b5061019f6004803603602081101561025857600080fd5b50356001600160a01b0316610596565b6002546001600160a01b031633148061028b57506001546001600160a01b031633145b6102cb576040805162461bcd60e51b815260206004820152600c60248201526b155b985d5d1a1bdc9a5e995960a21b604482015290519081900360640190fd5b6001600160a01b03821660008181526003602090815260409182902054825190815290810184905281518493339390927fee7aa1809348e0f32177d04baf37df86a10ef3337729271eeff50db46e199190929081900390910190a46001600160a01b03909116600090815260036020526040902055565b600254600160a01b900460ff1661038d576040805162461bcd60e51b815260206004820152600a6024820152691c994b595b9d195c995960b21b604482015290519081900360640190fd5b6002805460ff60a01b1981169091556001600160a01b03163314806103bc57506001546001600160a01b031633145b6103fc576040805162461bcd60e51b815260206004820152600c60248201526b155b985d5d1a1bdc9a5e995960a21b604482015290519081900360640190fd5b6000826001600160a01b0316636f307dc36040518163ffffffff1660e01b815260040160206040518083038186803b15801561043757600080fd5b505afa15801561044b573d6000803e3d6000fd5b505050506040513d602081101561046157600080fd5b50516001600160a01b038116600081815260036020908152604091829020548251908152908101869052815193945085933393927fee7aa1809348e0f32177d04baf37df86a10ef3337729271eeff50db46e199190928290030190a46001600160a01b0316600090815260036020526040902055506002805460ff60a01b1916600160a01b179055565b6001546001600160a01b03163314610539576040805162461bcd60e51b815260206004820152600c60248201526b155b985d5d1a1bdc9a5e995960a21b604482015290519081900360640190fd5b610542816106ac565b50565b6001600160a01b0381166000908152600360205260409020545b919050565b6000546001600160a01b031681565b600181565b6002546001600160a01b031681565b6001546001600160a01b031681565b6000805460408051638e8f294b60e01b81526001600160a01b038086166004830152825186948694921692638e8f294b926024808301939192829003018186803b1580156105e357600080fd5b505afa1580156105f7573d6000803e3d6000fd5b505050506040513d604081101561060d57600080fd5b50519050806106215760009250505061055f565b60036000856001600160a01b0316636f307dc36040518163ffffffff1660e01b815260040160206040518083038186803b15801561065e57600080fd5b505afa158015610672573d6000803e3d6000fd5b505050506040513d602081101561068857600080fd5b50516001600160a01b03168152602081019190915260400160002054949350505050565b6002546040516001600160a01b038084169216907fd8209502cb6dab3843acd5ce51ae027a6f3488c57c2d4aedac2d94501dfcfc8d90600090a3600280546001600160a01b0319166001600160a01b039290921691909117905556fea265627a7a72315820b18b2b0b358a4bd034a7c3051658bb68bbb97d02b61b3ba2a5f14a0dc950aa1c64736f6c634300050c0032",
  "source": "pragma solidity ^0.5.12;\n\nimport \"./CErc20.sol\";\nimport \"./CToken.sol\";\nimport \"./PriceOracle.sol\";\nimport \"./Comptroller.sol\";\n\ncontract PriceOracleOTL is PriceOracle {\n\n    /**\n     * @notice The comptroller which is used to white-list assets the oracle will price\n     * @dev Assets which are not white-listed will not be priced, to defend against abuse\n     */\n    Comptroller public comptroller;\n\n    address payable public admin;\n\n    address payable public poster;\n\n    bool public constant isPriceOracle = true;\n\n    /**\n     * @dev Guard variable for re-entrancy checks\n     */\n    bool internal _notEntered;\n\n    mapping(address => uint) prices;\n\n    event PricePosted(address indexed asset, address indexed postedBy, uint previousPriceMantissa, uint indexed requestedPriceMantissa, uint newPriceMantissa);\n    event NewPoster(address indexed oldPoster, address indexed newPoster);\n\n    constructor(address comptroller_) public {\n        comptroller = Comptroller(comptroller_);\n        admin = msg.sender;\n        _setPosterInternal(msg.sender);\n        _notEntered = true;\n    }\n\n    /**\n     * @notice Do not pay into PriceOracle\n     */\n    function() external payable  {\n        revert(\"Fallback Revert\");\n    }\n\n    function getUnderlyingPrice(CToken cToken) public view returns (uint) {\n        address cTokenAddress = address(cToken);\n        (bool isListed, ) = comptroller.markets(cTokenAddress);\n\n        if (!isListed) {\n            // not white-listed, worthless\n            return 0;\n        }\n\n        return prices[address(CErc20(address(cToken)).underlying())];\n    }\n\n    function setUnderlyingPrice(CToken cToken, uint underlyingPriceMantissa) public nonReentrant {\n        require(msg.sender == poster || msg.sender == admin, \"Unauthorized\");\n\n        address asset = address(CErc20(address(cToken)).underlying());\n        emit PricePosted(asset, msg.sender, prices[asset], underlyingPriceMantissa, underlyingPriceMantissa);\n        prices[asset] = underlyingPriceMantissa;\n    }\n\n    function setDirectPrice(address asset, uint priceMantissa) public {\n        require(msg.sender == poster || msg.sender == admin, \"Unauthorized\");\n\n        emit PricePosted(asset, msg.sender, prices[asset], priceMantissa, priceMantissa);\n        prices[asset] = priceMantissa;\n    }\n\n    // v1 price oracle interface for use as backing of proxy\n    function assetPrices(address asset) external view returns (uint) {\n        return prices[asset];\n    }\n\n    /*** Admin Functions ***/\n\n    function _setPoster(address payable newPoster) external {\n        // Check caller = admin\n        require(msg.sender == admin, \"Unauthorized\");\n\n        _setPosterInternal(newPoster);\n    }\n\n    function _setPosterInternal(address payable newPoster) internal {\n        emit NewPoster(poster, newPoster);\n        poster = newPoster;\n    }\n\n\n    /*** Reentrancy Guard ***/\n\n    /**\n     * @dev Prevents a contract from calling itself, directly or indirectly.\n     */\n    modifier nonReentrant() {\n        require(_notEntered, \"re-entered\");\n        _notEntered = false;\n        _;\n        _notEntered = true; // get a gas-refund post-Istanbul\n    }\n}\n",
  "sourcePath": "/home/akshay/workspace/somish/Konkrete/open-money-market/contracts/PriceOraclOTL.sol",
  "compiler": {
    "name": "solc",
    "version": "0.5.12+commit.7709ece9.Emscripten.clang"
  },
  "schemaVersion": "3.0.23",
  "updatedAt": "2020-05-06T07:44:32.505Z",
  "devdoc": {
    "methods": {}
  },
  "userdoc": {
    "methods": {
      "_setPoster(address)": {
        "notice": "* Admin Functions **"
      }
    }
  }
}